{
  "contractName": "KeepBonding",
  "abi": [
    {
      "inputs": [
        {
          "internalType": "address",
          "name": "registryAddress",
          "type": "address"
        },
        {
          "internalType": "address",
          "name": "tokenStakingAddress",
          "type": "address"
        },
        {
          "internalType": "address",
          "name": "tokenGrantAddress",
          "type": "address"
        }
      ],
      "payable": false,
      "stateMutability": "nonpayable",
      "type": "constructor"
    },
    {
      "anonymous": false,
      "inputs": [
        {
          "indexed": true,
          "internalType": "address",
          "name": "operator",
          "type": "address"
        },
        {
          "indexed": true,
          "internalType": "address",
          "name": "holder",
          "type": "address"
        },
        {
          "indexed": true,
          "internalType": "address",
          "name": "sortitionPool",
          "type": "address"
        },
        {
          "indexed": false,
          "internalType": "uint256",
          "name": "referenceID",
          "type": "uint256"
        },
        {
          "indexed": false,
          "internalType": "uint256",
          "name": "amount",
          "type": "uint256"
        }
      ],
      "name": "BondCreated",
      "type": "event"
    },
    {
      "anonymous": false,
      "inputs": [
        {
          "indexed": true,
          "internalType": "address",
          "name": "operator",
          "type": "address"
        },
        {
          "indexed": true,
          "internalType": "uint256",
          "name": "referenceID",
          "type": "uint256"
        },
        {
          "indexed": false,
          "internalType": "address",
          "name": "newHolder",
          "type": "address"
        },
        {
          "indexed": false,
          "internalType": "uint256",
          "name": "newReferenceID",
          "type": "uint256"
        }
      ],
      "name": "BondReassigned",
      "type": "event"
    },
    {
      "anonymous": false,
      "inputs": [
        {
          "indexed": true,
          "internalType": "address",
          "name": "operator",
          "type": "address"
        },
        {
          "indexed": true,
          "internalType": "uint256",
          "name": "referenceID",
          "type": "uint256"
        }
      ],
      "name": "BondReleased",
      "type": "event"
    },
    {
      "anonymous": false,
      "inputs": [
        {
          "indexed": true,
          "internalType": "address",
          "name": "operator",
          "type": "address"
        },
        {
          "indexed": true,
          "internalType": "uint256",
          "name": "referenceID",
          "type": "uint256"
        },
        {
          "indexed": false,
          "internalType": "address",
          "name": "destination",
          "type": "address"
        },
        {
          "indexed": false,
          "internalType": "uint256",
          "name": "amount",
          "type": "uint256"
        }
      ],
      "name": "BondSeized",
      "type": "event"
    },
    {
      "anonymous": false,
      "inputs": [
        {
          "indexed": true,
          "internalType": "address",
          "name": "operator",
          "type": "address"
        },
        {
          "indexed": true,
          "internalType": "address",
          "name": "beneficiary",
          "type": "address"
        },
        {
          "indexed": false,
          "internalType": "uint256",
          "name": "amount",
          "type": "uint256"
        }
      ],
      "name": "UnbondedValueDeposited",
      "type": "event"
    },
    {
      "anonymous": false,
      "inputs": [
        {
          "indexed": true,
          "internalType": "address",
          "name": "operator",
          "type": "address"
        },
        {
          "indexed": true,
          "internalType": "address",
          "name": "beneficiary",
          "type": "address"
        },
        {
          "indexed": false,
          "internalType": "uint256",
          "name": "amount",
          "type": "uint256"
        }
      ],
      "name": "UnbondedValueWithdrawn",
      "type": "event"
    },
    {
      "constant": false,
      "inputs": [
        {
          "internalType": "address",
          "name": "_operator",
          "type": "address"
        },
        {
          "internalType": "address",
          "name": "_poolAddress",
          "type": "address"
        }
      ],
      "name": "authorizeSortitionPoolContract",
      "outputs": [],
      "payable": false,
      "stateMutability": "nonpayable",
      "type": "function"
    },
    {
      "constant": true,
      "inputs": [
        {
          "internalType": "address",
          "name": "operator",
          "type": "address"
        },
        {
          "internalType": "address",
          "name": "bondCreator",
          "type": "address"
        },
        {
          "internalType": "address",
          "name": "authorizedSortitionPool",
          "type": "address"
        }
      ],
      "name": "availableUnbondedValue",
      "outputs": [
        {
          "internalType": "uint256",
          "name": "",
          "type": "uint256"
        }
      ],
      "payable": false,
      "stateMutability": "view",
      "type": "function"
    },
    {
      "constant": true,
      "inputs": [
        {
          "internalType": "address",
          "name": "operator",
          "type": "address"
        },
        {
          "internalType": "address",
          "name": "holder",
          "type": "address"
        },
        {
          "internalType": "uint256",
          "name": "referenceID",
          "type": "uint256"
        }
      ],
      "name": "bondAmount",
      "outputs": [
        {
          "internalType": "uint256",
          "name": "",
          "type": "uint256"
        }
      ],
      "payable": false,
      "stateMutability": "view",
      "type": "function"
    },
    {
      "constant": false,
      "inputs": [
        {
          "internalType": "address",
          "name": "operator",
          "type": "address"
        },
        {
          "internalType": "address",
          "name": "holder",
          "type": "address"
        },
        {
          "internalType": "uint256",
          "name": "referenceID",
          "type": "uint256"
        },
        {
          "internalType": "uint256",
          "name": "amount",
          "type": "uint256"
        },
        {
          "internalType": "address",
          "name": "authorizedSortitionPool",
          "type": "address"
        }
      ],
      "name": "createBond",
      "outputs": [],
      "payable": false,
      "stateMutability": "nonpayable",
      "type": "function"
    },
    {
      "constant": false,
      "inputs": [
        {
          "internalType": "address",
          "name": "_operator",
          "type": "address"
        },
        {
          "internalType": "address",
          "name": "_poolAddress",
          "type": "address"
        }
      ],
      "name": "deauthorizeSortitionPoolContract",
      "outputs": [],
      "payable": false,
      "stateMutability": "nonpayable",
      "type": "function"
    },
    {
      "constant": false,
      "inputs": [
        {
          "internalType": "address",
          "name": "operator",
          "type": "address"
        }
      ],
      "name": "deposit",
      "outputs": [],
      "payable": true,
      "stateMutability": "payable",
      "type": "function"
    },
    {
      "constant": false,
      "inputs": [
        {
          "internalType": "address",
          "name": "operator",
          "type": "address"
        },
        {
          "internalType": "uint256",
          "name": "referenceID",
          "type": "uint256"
        }
      ],
      "name": "freeBond",
      "outputs": [],
      "payable": false,
      "stateMutability": "nonpayable",
      "type": "function"
    },
    {
      "constant": true,
      "inputs": [
        {
          "internalType": "address",
          "name": "_operator",
          "type": "address"
        },
        {
          "internalType": "address",
          "name": "_poolAddress",
          "type": "address"
        }
      ],
      "name": "hasSecondaryAuthorization",
      "outputs": [
        {
          "internalType": "bool",
          "name": "",
          "type": "bool"
        }
      ],
      "payable": false,
      "stateMutability": "view",
      "type": "function"
    },
    {
      "constant": false,
      "inputs": [
        {
          "internalType": "address",
          "name": "operator",
          "type": "address"
        },
        {
          "internalType": "uint256",
          "name": "referenceID",
          "type": "uint256"
        },
        {
          "internalType": "address",
          "name": "newHolder",
          "type": "address"
        },
        {
          "internalType": "uint256",
          "name": "newReferenceID",
          "type": "uint256"
        }
      ],
      "name": "reassignBond",
      "outputs": [],
      "payable": false,
      "stateMutability": "nonpayable",
      "type": "function"
    },
    {
      "constant": false,
      "inputs": [
        {
          "internalType": "address",
          "name": "operator",
          "type": "address"
        },
        {
          "internalType": "uint256",
          "name": "referenceID",
          "type": "uint256"
        },
        {
          "internalType": "uint256",
          "name": "amount",
          "type": "uint256"
        },
        {
          "internalType": "address payable",
          "name": "destination",
          "type": "address"
        }
      ],
      "name": "seizeBond",
      "outputs": [],
      "payable": false,
      "stateMutability": "nonpayable",
      "type": "function"
    },
    {
      "constant": true,
      "inputs": [
        {
          "internalType": "address",
          "name": "",
          "type": "address"
        }
      ],
      "name": "unbondedValue",
      "outputs": [
        {
          "internalType": "uint256",
          "name": "",
          "type": "uint256"
        }
      ],
      "payable": false,
      "stateMutability": "view",
      "type": "function"
    },
    {
      "constant": false,
      "inputs": [
        {
          "internalType": "uint256",
          "name": "amount",
          "type": "uint256"
        },
        {
          "internalType": "address",
          "name": "operator",
          "type": "address"
        }
      ],
      "name": "withdraw",
      "outputs": [],
      "payable": false,
      "stateMutability": "nonpayable",
      "type": "function"
    },
    {
      "constant": false,
      "inputs": [
        {
          "internalType": "uint256",
          "name": "amount",
          "type": "uint256"
        },
        {
          "internalType": "address",
          "name": "operator",
          "type": "address"
        },
        {
          "internalType": "address",
          "name": "managedGrant",
          "type": "address"
        }
      ],
      "name": "withdrawAsManagedGrantee",
      "outputs": [],
      "payable": false,
      "stateMutability": "nonpayable",
      "type": "function"
    },
    {
      "constant": true,
      "inputs": [
        {
          "internalType": "address",
          "name": "_operator",
          "type": "address"
        },
        {
          "internalType": "address",
          "name": "_operatorContract",
          "type": "address"
        }
      ],
      "name": "isAuthorizedForOperator",
      "outputs": [
        {
          "internalType": "bool",
          "name": "",
          "type": "bool"
        }
      ],
      "payable": false,
      "stateMutability": "view",
      "type": "function"
    },
    {
      "constant": true,
      "inputs": [
        {
          "internalType": "address",
          "name": "_operator",
          "type": "address"
        }
      ],
      "name": "authorizerOf",
      "outputs": [
        {
          "internalType": "address",
          "name": "",
          "type": "address"
        }
      ],
      "payable": false,
      "stateMutability": "view",
      "type": "function"
    },
    {
      "constant": true,
      "inputs": [
        {
          "internalType": "address",
          "name": "_operator",
          "type": "address"
        }
      ],
      "name": "beneficiaryOf",
      "outputs": [
        {
          "internalType": "address payable",
          "name": "",
          "type": "address"
        }
      ],
      "payable": false,
      "stateMutability": "view",
      "type": "function"
    }
  ],
  "bytecode": "0x608060405234801561001057600080fd5b50604051612b21380380612b218339818101604052606081101561003357600080fd5b8101908080519060200190929190805190602001909291908051906020019092919050505082806000806101000a81548173ffffffffffffffffffffffffffffffffffffffff021916908373ffffffffffffffffffffffffffffffffffffffff1602179055505081600460006101000a81548173ffffffffffffffffffffffffffffffffffffffff021916908373ffffffffffffffffffffffffffffffffffffffff16021790555080600560006101000a81548173ffffffffffffffffffffffffffffffffffffffff021916908373ffffffffffffffffffffffffffffffffffffffff1602179055505050506129f38061012e6000396000f3fe6080604052600436106100f25760003560e01c80637ab3cf931161008a578063d20a62fc11610059578063d20a62fc146106c7578063ef1f96611461076c578063f340fa01146107f5578063fb1677b114610839576100f2565b80637ab3cf93146104e5578063972f245714610540578063ba7bffd3146105c5578063c578617414610656576100f2565b8063446f0f9e116100c6578063446f0f9e146102ed5780635823cfad1461037c5780635fcac8ff146103e157806378f011c11461045c576100f2565b8062f714ce146100f75780630b102471146101525780630cb0a677146101c357806342bcb96514610248575b600080fd5b34801561010357600080fd5b506101506004803603604081101561011a57600080fd5b8101908080359060200190929190803573ffffffffffffffffffffffffffffffffffffffff1690602001909291905050506108ca565b005b34801561015e57600080fd5b506101c16004803603604081101561017557600080fd5b81019080803573ffffffffffffffffffffffffffffffffffffffff169060200190929190803573ffffffffffffffffffffffffffffffffffffffff169060200190929190505050610a04565b005b3480156101cf57600080fd5b50610246600480360360808110156101e657600080fd5b81019080803573ffffffffffffffffffffffffffffffffffffffff1690602001909291908035906020019092919080359060200190929190803573ffffffffffffffffffffffffffffffffffffffff169060200190929190505050610b46565b005b34801561025457600080fd5b506102d76004803603606081101561026b57600080fd5b81019080803573ffffffffffffffffffffffffffffffffffffffff169060200190929190803573ffffffffffffffffffffffffffffffffffffffff169060200190929190803573ffffffffffffffffffffffffffffffffffffffff169060200190929190505050610e4e565b6040518082815260200191505060405180910390f35b3480156102f957600080fd5b506103666004803603606081101561031057600080fd5b81019080803573ffffffffffffffffffffffffffffffffffffffff169060200190929190803573ffffffffffffffffffffffffffffffffffffffff16906020019092919080359060200190929190505050610fa5565b6040518082815260200191505060405180910390f35b34801561038857600080fd5b506103cb6004803603602081101561039f57600080fd5b81019080803573ffffffffffffffffffffffffffffffffffffffff16906020019092919050505061105d565b6040518082815260200191505060405180910390f35b3480156103ed57600080fd5b5061045a6004803603606081101561040457600080fd5b8101908080359060200190929190803573ffffffffffffffffffffffffffffffffffffffff169060200190929190803573ffffffffffffffffffffffffffffffffffffffff169060200190929190505050611075565b005b34801561046857600080fd5b506104cb6004803603604081101561047f57600080fd5b81019080803573ffffffffffffffffffffffffffffffffffffffff169060200190929190803573ffffffffffffffffffffffffffffffffffffffff169060200190929190505050611128565b604051808215151515815260200191505060405180910390f35b3480156104f157600080fd5b5061053e6004803603604081101561050857600080fd5b81019080803573ffffffffffffffffffffffffffffffffffffffff169060200190929190803590602001909291905050506111bc565b005b34801561054c57600080fd5b506105c36004803603608081101561056357600080fd5b81019080803573ffffffffffffffffffffffffffffffffffffffff16906020019092919080359060200190929190803573ffffffffffffffffffffffffffffffffffffffff169060200190929190803590602001909291905050506113f4565b005b3480156105d157600080fd5b50610614600480360360208110156105e857600080fd5b81019080803573ffffffffffffffffffffffffffffffffffffffff1690602001909291905050506116f0565b604051808273ffffffffffffffffffffffffffffffffffffffff1673ffffffffffffffffffffffffffffffffffffffff16815260200191505060405180910390f35b34801561066257600080fd5b506106c56004803603604081101561067957600080fd5b81019080803573ffffffffffffffffffffffffffffffffffffffff169060200190929190803573ffffffffffffffffffffffffffffffffffffffff1690602001909291905050506117d3565b005b3480156106d357600080fd5b5061076a600480360360a08110156106ea57600080fd5b81019080803573ffffffffffffffffffffffffffffffffffffffff169060200190929190803573ffffffffffffffffffffffffffffffffffffffff1690602001909291908035906020019092919080359060200190929190803573ffffffffffffffffffffffffffffffffffffffff169060200190929190505050611915565b005b34801561077857600080fd5b506107db6004803603604081101561078f57600080fd5b81019080803573ffffffffffffffffffffffffffffffffffffffff169060200190929190803573ffffffffffffffffffffffffffffffffffffffff169060200190929190505050611bf8565b604051808215151515815260200191505060405180910390f35b6108376004803603602081101561080b57600080fd5b81019080803573ffffffffffffffffffffffffffffffffffffffff169060200190929190505050611d10565b005b34801561084557600080fd5b506108886004803603602081101561085c57600080fd5b81019080803573ffffffffffffffffffffffffffffffffffffffff169060200190929190505050611ea1565b604051808273ffffffffffffffffffffffffffffffffffffffff1673ffffffffffffffffffffffffffffffffffffffff16815260200191505060405180910390f35b8073ffffffffffffffffffffffffffffffffffffffff163373ffffffffffffffffffffffffffffffffffffffff16148061094d575061094c81600460009054906101000a900473ffffffffffffffffffffffffffffffffffffffff163373ffffffffffffffffffffffffffffffffffffffff16611f849092919063ffffffff16565b5b806109a157506109a081600560009054906101000a900473ffffffffffffffffffffffffffffffffffffffff163373ffffffffffffffffffffffffffffffffffffffff166120759092919063ffffffff16565b5b6109f6576040517f08c379a00000000000000000000000000000000000000000000000000000000081526004018080602001828103825260368152602001806129636036913960400191505060405180910390fd5b610a0082826121ea565b5050565b3373ffffffffffffffffffffffffffffffffffffffff16610a2483611ea1565b73ffffffffffffffffffffffffffffffffffffffff1614610aad576040517f08c379a000000000000000000000000000000000000000000000000000000000815260040180806020018281038252600e8152602001807f4e6f7420617574686f72697a656400000000000000000000000000000000000081525060200191505060405180910390fd5b6000600360008473ffffffffffffffffffffffffffffffffffffffff1673ffffffffffffffffffffffffffffffffffffffff16815260200190815260200160002060008373ffffffffffffffffffffffffffffffffffffffff1673ffffffffffffffffffffffffffffffffffffffff16815260200190815260200160002060006101000a81548160ff0219169083151502179055505050565b60008211610b9f576040517f08c379a000000000000000000000000000000000000000000000000000000000815260040180806020018281038252602c815260200180612937602c913960400191505060405180910390fd5b60003390506000858286604051602001808473ffffffffffffffffffffffffffffffffffffffff1673ffffffffffffffffffffffffffffffffffffffff1660601b81526014018373ffffffffffffffffffffffffffffffffffffffff1673ffffffffffffffffffffffffffffffffffffffff1660601b815260140182815260200193505050506040516020818303038152906040528051906020012090508360026000838152602001908152602001600020541015610ca9576040517f08c379a00000000000000000000000000000000000000000000000000000000081526004018080602001828103825260298152602001806128e66029913960400191505060405180910390fd5b610ccf84600260008481526020019081526020016000205461248890919063ffffffff16565b600260008381526020019081526020016000208190555060008373ffffffffffffffffffffffffffffffffffffffff168560405180600001905060006040518083038185875af1925050503d8060008114610d46576040519150601f19603f3d011682016040523d82523d6000602084013e610d4b565b606091505b5050905080610dc2576040517f08c379a000000000000000000000000000000000000000000000000000000000815260040180806020018281038252600f8152602001807f5472616e73666572206661696c6564000000000000000000000000000000000081525060200191505060405180910390fd5b858773ffffffffffffffffffffffffffffffffffffffff167ff8e947b47b515d01aa96426822ddcf23a08f42d8c2dbfd65e674ba824f5513828688604051808373ffffffffffffffffffffffffffffffffffffffff1673ffffffffffffffffffffffffffffffffffffffff1681526020018281526020019250505060405180910390a350505050505050565b60008060009054906101000a900473ffffffffffffffffffffffffffffffffffffffff1673ffffffffffffffffffffffffffffffffffffffff166384d57689846040518263ffffffff1660e01b8152600401808273ffffffffffffffffffffffffffffffffffffffff1673ffffffffffffffffffffffffffffffffffffffff16815260200191505060206040518083038186803b158015610eee57600080fd5b505afa158015610f02573d6000803e3d6000fd5b505050506040513d6020811015610f1857600080fd5b81019080805190602001909291905050508015610f3b5750610f3a8484611bf8565b5b8015610f4d5750610f4c8483611128565b5b15610f9957600160008573ffffffffffffffffffffffffffffffffffffffff1673ffffffffffffffffffffffffffffffffffffffff168152602001908152602001600020549050610f9e565b600090505b9392505050565b600080848484604051602001808473ffffffffffffffffffffffffffffffffffffffff1673ffffffffffffffffffffffffffffffffffffffff1660601b81526014018373ffffffffffffffffffffffffffffffffffffffff1673ffffffffffffffffffffffffffffffffffffffff1660601b8152601401828152602001935050505060405160208183030381529060405280519060200120905060026000828152602001908152602001600020549150509392505050565b60016020528060005260406000206000915090505481565b6110c48282600560009054906101000a900473ffffffffffffffffffffffffffffffffffffffff163373ffffffffffffffffffffffffffffffffffffffff16612511909392919063ffffffff16565b611119576040517f08c379a000000000000000000000000000000000000000000000000000000000815260040180806020018281038252602881526020018061290f6028913960400191505060405180910390fd5b61112383836121ea565b505050565b6000600360008473ffffffffffffffffffffffffffffffffffffffff1673ffffffffffffffffffffffffffffffffffffffff16815260200190815260200160002060008373ffffffffffffffffffffffffffffffffffffffff1673ffffffffffffffffffffffffffffffffffffffff16815260200190815260200160002060009054906101000a900460ff16905092915050565b60003390506000838284604051602001808473ffffffffffffffffffffffffffffffffffffffff1673ffffffffffffffffffffffffffffffffffffffff1660601b81526014018373ffffffffffffffffffffffffffffffffffffffff1673ffffffffffffffffffffffffffffffffffffffff1660601b8152601401828152602001935050505060405160208183030381529060405280519060200120905060006002600083815260200190815260200160002054116112e3576040517f08c379a000000000000000000000000000000000000000000000000000000000815260040180806020018281038252600e8152602001807f426f6e64206e6f7420666f756e6400000000000000000000000000000000000081525060200191505060405180910390fd5b6000600260008381526020019081526020016000205490506000600260008481526020019081526020016000208190555061136681600160008873ffffffffffffffffffffffffffffffffffffffff1673ffffffffffffffffffffffffffffffffffffffff1681526020019081526020016000205461278b90919063ffffffff16565b600160008773ffffffffffffffffffffffffffffffffffffffff1673ffffffffffffffffffffffffffffffffffffffff16815260200190815260200160002081905550838573ffffffffffffffffffffffffffffffffffffffff167f60b8ef4216791426b3d7acfb0b6d11a400872350afd70a3ce5ebf62bea7cb0d460405160405180910390a35050505050565b60003390506000858286604051602001808473ffffffffffffffffffffffffffffffffffffffff1673ffffffffffffffffffffffffffffffffffffffff1660601b81526014018373ffffffffffffffffffffffffffffffffffffffff1673ffffffffffffffffffffffffffffffffffffffff1660601b81526014018281526020019350505050604051602081830303815290604052805190602001209050600060026000838152602001908152602001600020541161151b576040517f08c379a000000000000000000000000000000000000000000000000000000000815260040180806020018281038252600e8152602001807f426f6e64206e6f7420666f756e6400000000000000000000000000000000000081525060200191505060405180910390fd5b6000868585604051602001808473ffffffffffffffffffffffffffffffffffffffff1673ffffffffffffffffffffffffffffffffffffffff1660601b81526014018373ffffffffffffffffffffffffffffffffffffffff1673ffffffffffffffffffffffffffffffffffffffff1660601b815260140182815260200193505050506040516020818303038152906040528051906020012090506000600260008381526020019081526020016000205414611620576040517f08c379a000000000000000000000000000000000000000000000000000000000815260040180806020018281038252602f81526020018061288f602f913960400191505060405180910390fd5b6002600083815260200190815260200160002054600260008381526020019081526020016000208190555060006002600084815260200190815260200160002081905550858773ffffffffffffffffffffffffffffffffffffffff167fb1d917176802bfbc813f2d82e745526029a4ccf0ea98d14e7a09a08703595b1e8787604051808373ffffffffffffffffffffffffffffffffffffffff1673ffffffffffffffffffffffffffffffffffffffff1681526020018281526020019250505060405180910390a350505050505050565b6000600460009054906101000a900473ffffffffffffffffffffffffffffffffffffffff1673ffffffffffffffffffffffffffffffffffffffff1663ba7bffd3836040518263ffffffff1660e01b8152600401808273ffffffffffffffffffffffffffffffffffffffff1673ffffffffffffffffffffffffffffffffffffffff16815260200191505060206040518083038186803b15801561179157600080fd5b505afa1580156117a5573d6000803e3d6000fd5b505050506040513d60208110156117bb57600080fd5b81019080805190602001909291905050509050919050565b3373ffffffffffffffffffffffffffffffffffffffff166117f383611ea1565b73ffffffffffffffffffffffffffffffffffffffff161461187c576040517f08c379a000000000000000000000000000000000000000000000000000000000815260040180806020018281038252600e8152602001807f4e6f7420617574686f72697a656400000000000000000000000000000000000081525060200191505060405180910390fd5b6001600360008473ffffffffffffffffffffffffffffffffffffffff1673ffffffffffffffffffffffffffffffffffffffff16815260200190815260200160002060008373ffffffffffffffffffffffffffffffffffffffff1673ffffffffffffffffffffffffffffffffffffffff16815260200190815260200160002060006101000a81548160ff0219169083151502179055505050565b81611921863384610e4e565b1015611995576040517f08c379a000000000000000000000000000000000000000000000000000000000815260040180806020018281038252601b8152602001807f496e73756666696369656e7420756e626f6e6465642076616c7565000000000081525060200191505060405180910390fd5b6000858585604051602001808473ffffffffffffffffffffffffffffffffffffffff1673ffffffffffffffffffffffffffffffffffffffff1660601b81526014018373ffffffffffffffffffffffffffffffffffffffff1673ffffffffffffffffffffffffffffffffffffffff1660601b815260140182815260200193505050506040516020818303038152906040528051906020012090506000600260008381526020019081526020016000205414611a9a576040517f08c379a000000000000000000000000000000000000000000000000000000000815260040180806020018281038252602f81526020018061288f602f913960400191505060405180910390fd5b611aec83600160008973ffffffffffffffffffffffffffffffffffffffff1673ffffffffffffffffffffffffffffffffffffffff1681526020019081526020016000205461248890919063ffffffff16565b600160008873ffffffffffffffffffffffffffffffffffffffff1673ffffffffffffffffffffffffffffffffffffffff16815260200190815260200160002081905550611b5583600260008481526020019081526020016000205461278b90919063ffffffff16565b60026000838152602001908152602001600020819055508173ffffffffffffffffffffffffffffffffffffffff168573ffffffffffffffffffffffffffffffffffffffff168773ffffffffffffffffffffffffffffffffffffffff167fa5543d8e139d9ab4342d5c4f6ec1bff5a97f9a52d71f7ffe9845b94f1449fc918787604051808381526020018281526020019250505060405180910390a4505050505050565b6000600460009054906101000a900473ffffffffffffffffffffffffffffffffffffffff1673ffffffffffffffffffffffffffffffffffffffff1663ef1f966184846040518363ffffffff1660e01b8152600401808373ffffffffffffffffffffffffffffffffffffffff1673ffffffffffffffffffffffffffffffffffffffff1681526020018273ffffffffffffffffffffffffffffffffffffffff1673ffffffffffffffffffffffffffffffffffffffff1681526020019250505060206040518083038186803b158015611ccd57600080fd5b505afa158015611ce1573d6000803e3d6000fd5b505050506040513d6020811015611cf757600080fd5b8101908080519060200190929190505050905092915050565b6000611d1b826116f0565b9050600073ffffffffffffffffffffffffffffffffffffffff168173ffffffffffffffffffffffffffffffffffffffff161415611da3576040517f08c379a00000000000000000000000000000000000000000000000000000000081526004018080602001828103825260288152602001806128be6028913960400191505060405180910390fd5b611df534600160008573ffffffffffffffffffffffffffffffffffffffff1673ffffffffffffffffffffffffffffffffffffffff1681526020019081526020016000205461278b90919063ffffffff16565b600160008473ffffffffffffffffffffffffffffffffffffffff1673ffffffffffffffffffffffffffffffffffffffff168152602001908152602001600020819055508073ffffffffffffffffffffffffffffffffffffffff168273ffffffffffffffffffffffffffffffffffffffff167ffd586a32ad24d585b1f7b36ee48e66304ad7627b48b39a0ab1d8a3e84741ea2a346040518082815260200191505060405180910390a35050565b6000600460009054906101000a900473ffffffffffffffffffffffffffffffffffffffff1673ffffffffffffffffffffffffffffffffffffffff1663fb1677b1836040518263ffffffff1660e01b8152600401808273ffffffffffffffffffffffffffffffffffffffff1673ffffffffffffffffffffffffffffffffffffffff16815260200191505060206040518083038186803b158015611f4257600080fd5b505afa158015611f56573d6000803e3d6000fd5b505050506040513d6020811015611f6c57600080fd5b81019080805190602001909291905050509050919050565b60008373ffffffffffffffffffffffffffffffffffffffff168273ffffffffffffffffffffffffffffffffffffffff166314afd79e856040518263ffffffff1660e01b8152600401808273ffffffffffffffffffffffffffffffffffffffff1673ffffffffffffffffffffffffffffffffffffffff16815260200191505060206040518083038186803b15801561201a57600080fd5b505afa15801561202e573d6000803e3d6000fd5b505050506040513d602081101561204457600080fd5b810190808051906020019092919050505073ffffffffffffffffffffffffffffffffffffffff161490509392505050565b600060608273ffffffffffffffffffffffffffffffffffffffff1663ca9a33ce866040518263ffffffff1660e01b8152600401808273ffffffffffffffffffffffffffffffffffffffff1673ffffffffffffffffffffffffffffffffffffffff16815260200191505060006040518083038186803b1580156120f657600080fd5b505afa15801561210a573d6000803e3d6000fd5b505050506040513d6000823e3d601f19601f82011682018060405250602081101561213457600080fd5b810190808051604051939291908464010000000082111561215457600080fd5b8382019150602082018581111561216a57600080fd5b825186602082028301116401000000008211171561218757600080fd5b8083526020830192505050908051906020019060200280838360005b838110156121be5780820151818401526020810190506121a3565b5050505090500160405250505090506121e0848261281390919063ffffffff16565b9150509392505050565b81600160008373ffffffffffffffffffffffffffffffffffffffff1673ffffffffffffffffffffffffffffffffffffffff16815260200190815260200160002054101561229f576040517f08c379a000000000000000000000000000000000000000000000000000000000815260040180806020018281038252601b8152602001807f496e73756666696369656e7420756e626f6e6465642076616c7565000000000081525060200191505060405180910390fd5b6122f182600160008473ffffffffffffffffffffffffffffffffffffffff1673ffffffffffffffffffffffffffffffffffffffff1681526020019081526020016000205461248890919063ffffffff16565b600160008373ffffffffffffffffffffffffffffffffffffffff1673ffffffffffffffffffffffffffffffffffffffff16815260200190815260200160002081905550600061233f826116f0565b905060008173ffffffffffffffffffffffffffffffffffffffff168460405180600001905060006040518083038185875af1925050503d80600081146123a1576040519150601f19603f3d011682016040523d82523d6000602084013e6123a6565b606091505b505090508061241d576040517f08c379a000000000000000000000000000000000000000000000000000000000815260040180806020018281038252600f8152602001807f5472616e73666572206661696c6564000000000000000000000000000000000081525060200191505060405180910390fd5b8173ffffffffffffffffffffffffffffffffffffffff168373ffffffffffffffffffffffffffffffffffffffff167f5ebf1d16423ab39117c0ca9327215b5bcd423aaf7042044c87248a4423d252d9866040518082815260200191505060405180910390a350505050565b600082821115612500576040517f08c379a000000000000000000000000000000000000000000000000000000000815260040180806020018281038252601e8152602001807f536166654d6174683a207375627472616374696f6e206f766572666c6f77000081525060200191505060405180910390fd5b600082840390508091505092915050565b60008473ffffffffffffffffffffffffffffffffffffffff168373ffffffffffffffffffffffffffffffffffffffff1663d5f520766040518163ffffffff1660e01b815260040160206040518083038186803b15801561257057600080fd5b505afa158015612584573d6000803e3d6000fd5b505050506040513d602081101561259a57600080fd5b810190808051906020019092919050505073ffffffffffffffffffffffffffffffffffffffff1614612617576040517f08c379a00000000000000000000000000000000000000000000000000000000081526004018080602001828103825260268152602001806129996026913960400191505060405180910390fd5b60608273ffffffffffffffffffffffffffffffffffffffff1663ca9a33ce856040518263ffffffff1660e01b8152600401808273ffffffffffffffffffffffffffffffffffffffff1673ffffffffffffffffffffffffffffffffffffffff16815260200191505060006040518083038186803b15801561269657600080fd5b505afa1580156126aa573d6000803e3d6000fd5b505050506040513d6000823e3d601f19601f8201168201806040525060208110156126d457600080fd5b81019080805160405193929190846401000000008211156126f457600080fd5b8382019150602082018581111561270a57600080fd5b825186602082028301116401000000008211171561272757600080fd5b8083526020830192505050908051906020019060200280838360005b8381101561275e578082015181840152602081019050612743565b505050509050016040525050509050612780858261281390919063ffffffff16565b915050949350505050565b600080828401905083811015612809576040517f08c379a000000000000000000000000000000000000000000000000000000000815260040180806020018281038252601b8152602001807f536166654d6174683a206164646974696f6e206f766572666c6f77000000000081525060200191505060405180910390fd5b8091505092915050565b600080600090505b83518110156128825783818151811061283057fe5b602002602001015173ffffffffffffffffffffffffffffffffffffffff168373ffffffffffffffffffffffffffffffffffffffff161415612875576001915050612888565b808060010191505061281b565b50600090505b9291505056fe5265666572656e6365204944206e6f7420756e6971756520666f7220686f6c64657220616e64206f70657261746f7242656e6566696369617279206e6f7420646566696e656420666f7220746865206f70657261746f7252657175657374656420616d6f756e742069732067726561746572207468616e2074686520626f6e644f6e6c79206772616e74656520697320616c6c6f77656420746f20776974686472617720626f6e6452657175657374656420616d6f756e742073686f756c642062652067726561746572207468616e207a65726f4f6e6c79206f70657261746f72206f7220746865206f776e657220697320616c6c6f77656420746f20776974686472617720626f6e644e6f742061206772616e746565206f66207468652070726f766964656420636f6e7472616374a265627a7a72315820d2487fb480b69c202fe0a1a290b3fd85c9228d3b74324bfa5781ef24c47e054864736f6c63430005110032",
  "source": "/**\n     \n   \n                            \n                             \n                           \n                           \n                          \n     \n     \n\n                           Trust math, not hardware.\n*/\n\npragma solidity 0.5.17;\n\nimport \"./AbstractBonding.sol\";\n\nimport \"@keep-network/keep-core/contracts/TokenGrant.sol\";\nimport \"@keep-network/keep-core/contracts/libraries/RolesLookup.sol\";\n\n/// @title Keep Bonding\n/// @notice Contract holding deposits from keeps' operators.\ncontract KeepBonding is AbstractBonding {\n    using RolesLookup for address payable;\n\n    // KEEP Token Staking contract.\n    TokenStaking internal tokenStaking;\n\n    // KEEP token grant contract.\n    TokenGrant internal tokenGrant;\n\n    /// @notice Initializes Keep Bonding contract.\n    /// @param registryAddress Keep registry contract address.\n    /// @param tokenStakingAddress KEEP token staking contract address.\n    /// @param tokenGrantAddress KEEP token grant contract address.\n    constructor(\n        address registryAddress,\n        address tokenStakingAddress,\n        address tokenGrantAddress\n    ) public AbstractBonding(registryAddress) {\n        tokenStaking = TokenStaking(tokenStakingAddress);\n        tokenGrant = TokenGrant(tokenGrantAddress);\n    }\n\n    /// @notice Withdraws amount from operator's value available for bonding.\n    /// Should not be used by grantee of managed grants. For this case,\n    /// please use `withdrawAsManagedGrantee`.\n    ///\n    /// This function can be called only by:\n    /// - operator,\n    /// - liquid, staked tokens owner (not a grant),\n    /// - direct staked tokens grantee (not a managed grant).\n    ///\n    /// @param amount Value to withdraw in wei.\n    /// @param operator Address of the operator.\n    function withdraw(uint256 amount, address operator) public {\n        require(\n            msg.sender == operator ||\n                msg.sender.isTokenOwnerForOperator(operator, tokenStaking) ||\n                msg.sender.isGranteeForOperator(operator, tokenGrant),\n            \"Only operator or the owner is allowed to withdraw bond\"\n        );\n\n        withdrawBond(amount, operator);\n    }\n\n    /// @notice Withdraws amount from operator's value available for bonding.\n    /// Can be called only by staked tokens managed grantee.\n    /// @param amount Value to withdraw in wei.\n    /// @param operator Address of the operator.\n    /// @param managedGrant Address of the managed grant contract.\n    function withdrawAsManagedGrantee(\n        uint256 amount,\n        address operator,\n        address managedGrant\n    ) public {\n        require(\n            msg.sender.isManagedGranteeForOperator(\n                operator,\n                managedGrant,\n                tokenGrant\n            ),\n            \"Only grantee is allowed to withdraw bond\"\n        );\n\n        withdrawBond(amount, operator);\n    }\n\n    function isAuthorizedForOperator(\n        address _operator,\n        address _operatorContract\n    ) public view returns (bool) {\n        return\n            tokenStaking.isAuthorizedForOperator(_operator, _operatorContract);\n    }\n\n    function authorizerOf(address _operator) public view returns (address) {\n        return tokenStaking.authorizerOf(_operator);\n    }\n\n    function beneficiaryOf(address _operator)\n        public\n        view\n        returns (address payable)\n    {\n        return tokenStaking.beneficiaryOf(_operator);\n    }\n}\n",
  "sourcePath": "/root/project/solidity/contracts/KeepBonding.sol",
  "compiler": {
    "name": "solc",
    "version": "0.5.17+commit.d19bba13.Emscripten.clang"
  },
  "schemaVersion": "3.0.22",
  "updatedAt": "2020-08-31T14:22:26.030Z",
  "networkType": "ethereum",
  "devdoc": {
    "methods": {
      "authorizeSortitionPoolContract(address,address)": {
        "details": "Only operator's authorizer can call this function."
      },
      "availableUnbondedValue(address,address,address)": {
        "details": "Implements function expected by sortition pools' IBonding interface.",
        "params": {
          "authorizedSortitionPool": "Address of authorized sortition pool.",
          "bondCreator": "Address authorized to create a bond.",
          "operator": "Address of the operator."
        },
        "return": "Amount of authorized wei deposit available for bonding."
      },
      "bondAmount(address,address,uint256)": {
        "params": {
          "holder": "Address of the holder of the bond.",
          "operator": "Address of the operator.",
          "referenceID": "Reference ID of the bond."
        },
        "return": "Amount of wei in the selected bond."
      },
      "constructor": {
        "params": {
          "registryAddress": "Keep registry contract address.",
          "tokenGrantAddress": "KEEP token grant contract address.",
          "tokenStakingAddress": "KEEP token staking contract address."
        }
      },
      "createBond(address,address,uint256,uint256,address)": {
        "details": "Function can be executed only by authorized contract. Reference ID should be unique for holder and operator.",
        "params": {
          "amount": "Value to bond in wei.",
          "authorizedSortitionPool": "Address of authorized sortition pool.",
          "holder": "Address of the holder of the bond.",
          "operator": "Address of the operator to bond.",
          "referenceID": "Reference ID used to track the bond by holder."
        }
      },
      "deauthorizeSortitionPoolContract(address,address)": {
        "details": "Only operator's authorizer can call this function."
      },
      "deposit(address)": {
        "params": {
          "operator": "Address of the operator."
        }
      },
      "freeBond(address,uint256)": {
        "details": "Function requires that caller is the holder of the bond which is being released.",
        "params": {
          "operator": "Address of the bonded operator.",
          "referenceID": "Reference ID of the bond."
        }
      },
      "hasSecondaryAuthorization(address,address)": {
        "details": "See authorizeSortitionPoolContract."
      },
      "reassignBond(address,uint256,address,uint256)": {
        "details": "Function requires that a caller is the current holder of the bond which is being reassigned.",
        "params": {
          "newHolder": "Address of the new holder of the bond.",
          "newReferenceID": "New reference ID to register the bond.",
          "operator": "Address of the bonded operator.",
          "referenceID": "Reference ID of the bond."
        }
      },
      "seizeBond(address,uint256,uint256,address)": {
        "details": "Function requires that a caller is the holder of the bond which is being seized.",
        "params": {
          "amount": "Amount to be seized.",
          "destination": "Address to send the amount to.",
          "operator": "Address of the bonded operator.",
          "referenceID": "Reference ID of the bond."
        }
      },
      "withdraw(uint256,address)": {
        "params": {
          "amount": "Value to withdraw in wei.",
          "operator": "Address of the operator."
        }
      },
      "withdrawAsManagedGrantee(uint256,address,address)": {
        "params": {
          "amount": "Value to withdraw in wei.",
          "managedGrant": "Address of the managed grant contract.",
          "operator": "Address of the operator."
        }
      }
    },
    "title": "Keep Bonding"
  },
  "userdoc": {
    "methods": {
      "authorizeSortitionPoolContract(address,address)": {
        "notice": "Authorizes sortition pool for the provided operator. Operator's authorizers need to authorize individual sortition pools per application since they may be interested in participating only in a subset of keep types used by the given application."
      },
      "availableUnbondedValue(address,address,address)": {
        "notice": "Returns the amount of wei the operator has made available for bonding and that is still unbounded. If the operator doesn't exist or bond creator is not authorized as an operator contract or it is not authorized by the operator or there is no secondary authorization for the provided sortition pool, function returns 0."
      },
      "bondAmount(address,address,uint256)": {
        "notice": "Returns value of wei bonded for the operator."
      },
      "constructor": "Initializes Keep Bonding contract.",
      "createBond(address,address,uint256,uint256,address)": {
        "notice": "Create bond for the given operator, holder, reference and amount."
      },
      "deauthorizeSortitionPoolContract(address,address)": {
        "notice": "Deauthorizes sortition pool for the provided operator. Authorizer may deauthorize individual sortition pool in case the operator should no longer be eligible for work selection and the application represented by the sortition pool should no longer be eligible to create bonds for the operator."
      },
      "deposit(address)": {
        "notice": "Add the provided value to operator's pool available for bonding."
      },
      "freeBond(address,uint256)": {
        "notice": "Releases the bond and moves the bond value to the operator's unbounded value pool."
      },
      "hasSecondaryAuthorization(address,address)": {
        "notice": "Checks if the sortition pool has been authorized for the provided operator by its authorizer."
      },
      "reassignBond(address,uint256,address,uint256)": {
        "notice": "Reassigns a bond to a new holder under a new reference."
      },
      "seizeBond(address,uint256,uint256,address)": {
        "notice": "Seizes the bond by moving some or all of the locked bond to the provided destination address."
      },
      "withdraw(uint256,address)": {
        "notice": "Withdraws amount from operator's value available for bonding. Should not be used by grantee of managed grants. For this case, please use `withdrawAsManagedGrantee`.     /// This function can be called only by: - operator, - liquid, staked tokens owner (not a grant), - direct staked tokens grantee (not a managed grant). "
      },
      "withdrawAsManagedGrantee(uint256,address,address)": {
        "notice": "Withdraws amount from operator's value available for bonding. Can be called only by staked tokens managed grantee."
      }
    },
    "notice": "Contract holding deposits from keeps' operators."
  }
}