{
  "contractName": "TokenGrant",
  "abi": [
    {
      "inputs": [
        {
          "internalType": "address",
          "name": "_tokenAddress",
          "type": "address"
        }
      ],
      "payable": false,
      "stateMutability": "nonpayable",
      "type": "constructor"
    },
    {
      "anonymous": false,
      "inputs": [
        {
          "indexed": true,
          "internalType": "address",
          "name": "grantManager",
          "type": "address"
        },
        {
          "indexed": false,
          "internalType": "address",
          "name": "stakingContract",
          "type": "address"
        }
      ],
      "name": "StakingContractAuthorized",
      "type": "event"
    },
    {
      "anonymous": false,
      "inputs": [
        {
          "indexed": false,
          "internalType": "uint256",
          "name": "id",
          "type": "uint256"
        }
      ],
      "name": "TokenGrantCreated",
      "type": "event"
    },
    {
      "anonymous": false,
      "inputs": [
        {
          "indexed": false,
          "internalType": "uint256",
          "name": "id",
          "type": "uint256"
        }
      ],
      "name": "TokenGrantRevoked",
      "type": "event"
    },
    {
      "anonymous": false,
      "inputs": [
        {
          "indexed": true,
          "internalType": "uint256",
          "name": "grantId",
          "type": "uint256"
        },
        {
          "indexed": false,
          "internalType": "uint256",
          "name": "amount",
          "type": "uint256"
        },
        {
          "indexed": false,
          "internalType": "address",
          "name": "operator",
          "type": "address"
        }
      ],
      "name": "TokenGrantStaked",
      "type": "event"
    },
    {
      "anonymous": false,
      "inputs": [
        {
          "indexed": true,
          "internalType": "uint256",
          "name": "grantId",
          "type": "uint256"
        },
        {
          "indexed": false,
          "internalType": "uint256",
          "name": "amount",
          "type": "uint256"
        }
      ],
      "name": "TokenGrantWithdrawn",
      "type": "event"
    },
    {
      "constant": true,
      "inputs": [
        {
          "internalType": "address",
          "name": "",
          "type": "address"
        }
      ],
      "name": "balances",
      "outputs": [
        {
          "internalType": "uint256",
          "name": "",
          "type": "uint256"
        }
      ],
      "payable": false,
      "stateMutability": "view",
      "type": "function"
    },
    {
      "constant": true,
      "inputs": [
        {
          "internalType": "address",
          "name": "",
          "type": "address"
        },
        {
          "internalType": "uint256",
          "name": "",
          "type": "uint256"
        }
      ],
      "name": "grantIndices",
      "outputs": [
        {
          "internalType": "uint256",
          "name": "",
          "type": "uint256"
        }
      ],
      "payable": false,
      "stateMutability": "view",
      "type": "function"
    },
    {
      "constant": true,
      "inputs": [
        {
          "internalType": "address",
          "name": "",
          "type": "address"
        }
      ],
      "name": "grantStakes",
      "outputs": [
        {
          "internalType": "contract TokenGrantStake",
          "name": "",
          "type": "address"
        }
      ],
      "payable": false,
      "stateMutability": "view",
      "type": "function"
    },
    {
      "constant": true,
      "inputs": [
        {
          "internalType": "address",
          "name": "",
          "type": "address"
        },
        {
          "internalType": "uint256",
          "name": "",
          "type": "uint256"
        }
      ],
      "name": "granteesToOperators",
      "outputs": [
        {
          "internalType": "address",
          "name": "",
          "type": "address"
        }
      ],
      "payable": false,
      "stateMutability": "view",
      "type": "function"
    },
    {
      "constant": true,
      "inputs": [
        {
          "internalType": "uint256",
          "name": "",
          "type": "uint256"
        }
      ],
      "name": "grants",
      "outputs": [
        {
          "internalType": "address",
          "name": "grantManager",
          "type": "address"
        },
        {
          "internalType": "address",
          "name": "grantee",
          "type": "address"
        },
        {
          "internalType": "uint256",
          "name": "revokedAt",
          "type": "uint256"
        },
        {
          "internalType": "uint256",
          "name": "revokedAmount",
          "type": "uint256"
        },
        {
          "internalType": "uint256",
          "name": "revokedWithdrawn",
          "type": "uint256"
        },
        {
          "internalType": "bool",
          "name": "revocable",
          "type": "bool"
        },
        {
          "internalType": "uint256",
          "name": "amount",
          "type": "uint256"
        },
        {
          "internalType": "uint256",
          "name": "duration",
          "type": "uint256"
        },
        {
          "internalType": "uint256",
          "name": "start",
          "type": "uint256"
        },
        {
          "internalType": "uint256",
          "name": "cliff",
          "type": "uint256"
        },
        {
          "internalType": "uint256",
          "name": "withdrawn",
          "type": "uint256"
        },
        {
          "internalType": "uint256",
          "name": "staked",
          "type": "uint256"
        },
        {
          "internalType": "contract GrantStakingPolicy",
          "name": "stakingPolicy",
          "type": "address"
        }
      ],
      "payable": false,
      "stateMutability": "view",
      "type": "function"
    },
    {
      "constant": true,
      "inputs": [],
      "name": "numGrants",
      "outputs": [
        {
          "internalType": "uint256",
          "name": "",
          "type": "uint256"
        }
      ],
      "payable": false,
      "stateMutability": "view",
      "type": "function"
    },
    {
      "constant": true,
      "inputs": [],
      "name": "token",
      "outputs": [
        {
          "internalType": "contract ERC20Burnable",
          "name": "",
          "type": "address"
        }
      ],
      "payable": false,
      "stateMutability": "view",
      "type": "function"
    },
    {
      "constant": false,
      "inputs": [
        {
          "internalType": "address",
          "name": "_stakingContract",
          "type": "address"
        }
      ],
      "name": "authorizeStakingContract",
      "outputs": [],
      "payable": false,
      "stateMutability": "nonpayable",
      "type": "function"
    },
    {
      "constant": true,
      "inputs": [
        {
          "internalType": "address",
          "name": "_owner",
          "type": "address"
        }
      ],
      "name": "balanceOf",
      "outputs": [
        {
          "internalType": "uint256",
          "name": "balance",
          "type": "uint256"
        }
      ],
      "payable": false,
      "stateMutability": "view",
      "type": "function"
    },
    {
      "constant": true,
      "inputs": [
        {
          "internalType": "address",
          "name": "_address",
          "type": "address"
        }
      ],
      "name": "stakeBalanceOf",
      "outputs": [
        {
          "internalType": "uint256",
          "name": "balance",
          "type": "uint256"
        }
      ],
      "payable": false,
      "stateMutability": "view",
      "type": "function"
    },
    {
      "constant": true,
      "inputs": [
        {
          "internalType": "uint256",
          "name": "_id",
          "type": "uint256"
        }
      ],
      "name": "getGrant",
      "outputs": [
        {
          "internalType": "uint256",
          "name": "amount",
          "type": "uint256"
        },
        {
          "internalType": "uint256",
          "name": "withdrawn",
          "type": "uint256"
        },
        {
          "internalType": "uint256",
          "name": "staked",
          "type": "uint256"
        },
        {
          "internalType": "uint256",
          "name": "revokedAmount",
          "type": "uint256"
        },
        {
          "internalType": "uint256",
          "name": "revokedAt",
          "type": "uint256"
        },
        {
          "internalType": "address",
          "name": "grantee",
          "type": "address"
        }
      ],
      "payable": false,
      "stateMutability": "view",
      "type": "function"
    },
    {
      "constant": true,
      "inputs": [
        {
          "internalType": "uint256",
          "name": "_id",
          "type": "uint256"
        }
      ],
      "name": "getGrantUnlockingSchedule",
      "outputs": [
        {
          "internalType": "address",
          "name": "grantManager",
          "type": "address"
        },
        {
          "internalType": "uint256",
          "name": "duration",
          "type": "uint256"
        },
        {
          "internalType": "uint256",
          "name": "start",
          "type": "uint256"
        },
        {
          "internalType": "uint256",
          "name": "cliff",
          "type": "uint256"
        },
        {
          "internalType": "address",
          "name": "policy",
          "type": "address"
        }
      ],
      "payable": false,
      "stateMutability": "view",
      "type": "function"
    },
    {
      "constant": true,
      "inputs": [
        {
          "internalType": "address",
          "name": "_granteeOrGrantManager",
          "type": "address"
        }
      ],
      "name": "getGrants",
      "outputs": [
        {
          "internalType": "uint256[]",
          "name": "",
          "type": "uint256[]"
        }
      ],
      "payable": false,
      "stateMutability": "view",
      "type": "function"
    },
    {
      "constant": true,
      "inputs": [
        {
          "internalType": "address",
          "name": "grantee",
          "type": "address"
        }
      ],
      "name": "getGranteeOperators",
      "outputs": [
        {
          "internalType": "address[]",
          "name": "",
          "type": "address[]"
        }
      ],
      "payable": false,
      "stateMutability": "view",
      "type": "function"
    },
    {
      "constant": true,
      "inputs": [
        {
          "internalType": "address",
          "name": "operator",
          "type": "address"
        }
      ],
      "name": "getGrantStakeDetails",
      "outputs": [
        {
          "internalType": "uint256",
          "name": "grantId",
          "type": "uint256"
        },
        {
          "internalType": "uint256",
          "name": "amount",
          "type": "uint256"
        },
        {
          "internalType": "address",
          "name": "stakingContract",
          "type": "address"
        }
      ],
      "payable": false,
      "stateMutability": "view",
      "type": "function"
    },
    {
      "constant": false,
      "inputs": [
        {
          "internalType": "address",
          "name": "_from",
          "type": "address"
        },
        {
          "internalType": "uint256",
          "name": "_amount",
          "type": "uint256"
        },
        {
          "internalType": "address",
          "name": "_token",
          "type": "address"
        },
        {
          "internalType": "bytes",
          "name": "_extraData",
          "type": "bytes"
        }
      ],
      "name": "receiveApproval",
      "outputs": [],
      "payable": false,
      "stateMutability": "nonpayable",
      "type": "function"
    },
    {
      "constant": false,
      "inputs": [
        {
          "internalType": "uint256",
          "name": "_id",
          "type": "uint256"
        }
      ],
      "name": "withdraw",
      "outputs": [],
      "payable": false,
      "stateMutability": "nonpayable",
      "type": "function"
    },
    {
      "constant": true,
      "inputs": [
        {
          "internalType": "uint256",
          "name": "_id",
          "type": "uint256"
        }
      ],
      "name": "unlockedAmount",
      "outputs": [
        {
          "internalType": "uint256",
          "name": "",
          "type": "uint256"
        }
      ],
      "payable": false,
      "stateMutability": "view",
      "type": "function"
    },
    {
      "constant": true,
      "inputs": [
        {
          "internalType": "uint256",
          "name": "_id",
          "type": "uint256"
        }
      ],
      "name": "withdrawable",
      "outputs": [
        {
          "internalType": "uint256",
          "name": "",
          "type": "uint256"
        }
      ],
      "payable": false,
      "stateMutability": "view",
      "type": "function"
    },
    {
      "constant": false,
      "inputs": [
        {
          "internalType": "uint256",
          "name": "_id",
          "type": "uint256"
        }
      ],
      "name": "revoke",
      "outputs": [],
      "payable": false,
      "stateMutability": "nonpayable",
      "type": "function"
    },
    {
      "constant": false,
      "inputs": [
        {
          "internalType": "uint256",
          "name": "_id",
          "type": "uint256"
        }
      ],
      "name": "withdrawRevoked",
      "outputs": [],
      "payable": false,
      "stateMutability": "nonpayable",
      "type": "function"
    },
    {
      "constant": false,
      "inputs": [
        {
          "internalType": "uint256",
          "name": "_id",
          "type": "uint256"
        },
        {
          "internalType": "address",
          "name": "_stakingContract",
          "type": "address"
        },
        {
          "internalType": "uint256",
          "name": "_amount",
          "type": "uint256"
        },
        {
          "internalType": "bytes",
          "name": "_extraData",
          "type": "bytes"
        }
      ],
      "name": "stake",
      "outputs": [],
      "payable": false,
      "stateMutability": "nonpayable",
      "type": "function"
    },
    {
      "constant": true,
      "inputs": [
        {
          "internalType": "uint256",
          "name": "_grantId",
          "type": "uint256"
        }
      ],
      "name": "availableToStake",
      "outputs": [
        {
          "internalType": "uint256",
          "name": "",
          "type": "uint256"
        }
      ],
      "payable": false,
      "stateMutability": "view",
      "type": "function"
    },
    {
      "constant": false,
      "inputs": [
        {
          "internalType": "address",
          "name": "_operator",
          "type": "address"
        }
      ],
      "name": "cancelStake",
      "outputs": [],
      "payable": false,
      "stateMutability": "nonpayable",
      "type": "function"
    },
    {
      "constant": false,
      "inputs": [
        {
          "internalType": "address",
          "name": "_operator",
          "type": "address"
        }
      ],
      "name": "undelegate",
      "outputs": [],
      "payable": false,
      "stateMutability": "nonpayable",
      "type": "function"
    },
    {
      "constant": false,
      "inputs": [
        {
          "internalType": "address",
          "name": "_operator",
          "type": "address"
        }
      ],
      "name": "cancelRevokedStake",
      "outputs": [],
      "payable": false,
      "stateMutability": "nonpayable",
      "type": "function"
    },
    {
      "constant": false,
      "inputs": [
        {
          "internalType": "address",
          "name": "_operator",
          "type": "address"
        }
      ],
      "name": "undelegateRevoked",
      "outputs": [],
      "payable": false,
      "stateMutability": "nonpayable",
      "type": "function"
    },
    {
      "constant": false,
      "inputs": [
        {
          "internalType": "address",
          "name": "_operator",
          "type": "address"
        }
      ],
      "name": "recoverStake",
      "outputs": [],
      "payable": false,
      "stateMutability": "nonpayable",
      "type": "function"
    }
  ],
  "bytecode": "0x60806040523480156200001157600080fd5b5060405162005f3c38038062005f3c833981810160405260208110156200003757600080fd5b8101908080519060200190929190505050600073ffffffffffffffffffffffffffffffffffffffff168173ffffffffffffffffffffffffffffffffffffffff161415620000ec576040517f08c379a000000000000000000000000000000000000000000000000000000000815260040180806020018281038252601c8152602001807f546f6b656e20616464726573732063616e2774206265207a65726f2e0000000081525060200191505060405180910390fd5b80600160006101000a81548173ffffffffffffffffffffffffffffffffffffffff021916908373ffffffffffffffffffffffffffffffffffffffff16021790555050615dfe806200013e6000396000f3fe60806040523480156200001157600080fd5b5060043610620001f05760003560e01c80639bf850781162000111578063dba6d92411620000a5578063f29e2737116200007b578063f29e27371462000c9b578063f3ad1c1a1462000d30578063f81a64631462000dce578063fc0c546a1462000dee57620001f0565b8063dba6d9241462000bc8578063e064172e1462000c0f578063f11988e01462000c5657620001f0565b8063c6076b7a11620000e7578063c6076b7a14620009e5578063c90376e41462000a9e578063ca9a33ce1462000ae3578063da8be8641462000b8157620001f0565b80639bf8507814620008af578063af46aa0814620008f6578063b8cc6c93146200095157620001f0565b80635860280c11620001895780638e34e561116200015f5780638e34e561146200069d5780638f4ffcb114620006ce578063910bcf6114620007d95780639ae6e9c4146200081e57620001f0565b80635860280c14620004e857806370a0823114620005dd57806373297585146200063857620001f0565b806327e235e311620001cb57806327e235e314620003ce5780632e1a7d4d14620004295780633934af5c146200045a578063525835f914620004a157620001f0565b80630c0debea14620001f557806320c5429b14620003165780632496bfb31462000347575b600080fd5b62000224600480360360208110156200020d57600080fd5b810190808035906020019092919050505062000e3a565b604051808e73ffffffffffffffffffffffffffffffffffffffff1673ffffffffffffffffffffffffffffffffffffffff1681526020018d73ffffffffffffffffffffffffffffffffffffffff1673ffffffffffffffffffffffffffffffffffffffff1681526020018c81526020018b81526020018a8152602001891515151581526020018881526020018781526020018681526020018581526020018481526020018381526020018273ffffffffffffffffffffffffffffffffffffffff1673ffffffffffffffffffffffffffffffffffffffff1681526020019d505050505050505050505050505060405180910390f35b62000345600480360360208110156200032e57600080fd5b810190808035906020019092919050505062000f0d565b005b6200038c600480360360208110156200035f57600080fd5b81019080803573ffffffffffffffffffffffffffffffffffffffff16906020019092919050505062001284565b604051808273ffffffffffffffffffffffffffffffffffffffff1673ffffffffffffffffffffffffffffffffffffffff16815260200191505060405180910390f35b6200041360048036036020811015620003e657600080fd5b81019080803573ffffffffffffffffffffffffffffffffffffffff169060200190929190505050620012b7565b6040518082815260200191505060405180910390f35b62000458600480360360208110156200044157600080fd5b8101908080359060200190929190505050620012cf565b005b6200049f600480360360208110156200047257600080fd5b81019080803573ffffffffffffffffffffffffffffffffffffffff16906020019092919050505062001542565b005b620004e660048036036020811015620004b957600080fd5b81019080803573ffffffffffffffffffffffffffffffffffffffff1690602001909291905050506200184d565b005b620005db600480360360808110156200050057600080fd5b8101908080359060200190929190803573ffffffffffffffffffffffffffffffffffffffff16906020019092919080359060200190929190803590602001906401000000008111156200055257600080fd5b8201836020820111156200056557600080fd5b803590602001918460018302840111640100000000831117156200058857600080fd5b91908080601f016020809104026020016040519081016040528093929190818152602001838380828437600081840152601f19601f82011690508083019250505050505050919291929050505062001a70565b005b6200062260048036036020811015620005f557600080fd5b81019080803573ffffffffffffffffffffffffffffffffffffffff16906020019092919050505062002224565b6040518082815260200191505060405180910390f35b62000687600480360360408110156200065057600080fd5b81019080803573ffffffffffffffffffffffffffffffffffffffff169060200190929190803590602001909291905050506200226d565b6040518082815260200191505060405180910390f35b620006cc60048036036020811015620006b557600080fd5b81019080803590602001909291905050506200229c565b005b620007d760048036036080811015620006e657600080fd5b81019080803573ffffffffffffffffffffffffffffffffffffffff16906020019092919080359060200190929190803573ffffffffffffffffffffffffffffffffffffffff169060200190929190803590602001906401000000008111156200074e57600080fd5b8201836020820111156200076157600080fd5b803590602001918460018302840111640100000000831117156200078457600080fd5b91908080601f016020809104026020016040519081016040528093929190818152602001838380828437600081840152601f19601f82011690508083019250505050505050919291929050505062002553565b005b6200080860048036036020811015620007f157600080fd5b810190808035906020019092919050505062002d9f565b6040518082815260200191505060405180910390f35b6200086d600480360360408110156200083657600080fd5b81019080803573ffffffffffffffffffffffffffffffffffffffff1690602001909291908035906020019092919050505062002f18565b604051808273ffffffffffffffffffffffffffffffffffffffff1673ffffffffffffffffffffffffffffffffffffffff16815260200191505060405180910390f35b620008f460048036036020811015620008c757600080fd5b81019080803573ffffffffffffffffffffffffffffffffffffffff16906020019092919050505062002f64565b005b6200093b600480360360208110156200090e57600080fd5b81019080803573ffffffffffffffffffffffffffffffffffffffff16906020019092919050505062003201565b6040518082815260200191505060405180910390f35b62000980600480360360208110156200096957600080fd5b8101908080359060200190929190505050620032e1565b604051808781526020018681526020018581526020018481526020018381526020018273ffffffffffffffffffffffffffffffffffffffff1673ffffffffffffffffffffffffffffffffffffffff168152602001965050505050505060405180910390f35b62000a1460048036036020811015620009fd57600080fd5b8101908080359060200190929190505050620033a9565b604051808673ffffffffffffffffffffffffffffffffffffffff1673ffffffffffffffffffffffffffffffffffffffff1681526020018581526020018481526020018381526020018273ffffffffffffffffffffffffffffffffffffffff1673ffffffffffffffffffffffffffffffffffffffff1681526020019550505050505060405180910390f35b62000acd6004803603602081101562000ab657600080fd5b810190808035906020019092919050505062003477565b6040518082815260200191505060405180910390f35b62000b286004803603602081101562000afb57600080fd5b81019080803573ffffffffffffffffffffffffffffffffffffffff169060200190929190505050620034f4565b6040518080602001828103825283818151815260200191508051906020019060200280838360005b8381101562000b6d57808201518184015260208101905062000b50565b505050509050019250505060405180910390f35b62000bc66004803603602081101562000b9957600080fd5b81019080803573ffffffffffffffffffffffffffffffffffffffff169060200190929190505050620035c3565b005b62000c0d6004803603602081101562000be057600080fd5b81019080803573ffffffffffffffffffffffffffffffffffffffff16906020019092919050505062003809565b005b62000c546004803603602081101562000c2757600080fd5b81019080803573ffffffffffffffffffffffffffffffffffffffff169060200190929190505050620039a3565b005b62000c856004803603602081101562000c6e57600080fd5b810190808035906020019092919050505062003c57565b6040518082815260200191505060405180910390f35b62000ce06004803603602081101562000cb357600080fd5b81019080803573ffffffffffffffffffffffffffffffffffffffff16906020019092919050505062003cfa565b604051808481526020018381526020018273ffffffffffffffffffffffffffffffffffffffff1673ffffffffffffffffffffffffffffffffffffffff168152602001935050505060405180910390f35b62000d756004803603602081101562000d4857600080fd5b81019080803573ffffffffffffffffffffffffffffffffffffffff16906020019092919050505062003e03565b6040518080602001828103825283818151815260200191508051906020019060200280838360005b8381101562000dba57808201518184015260208101905062000d9d565b505050509050019250505060405180910390f35b62000dd862003e9c565b6040518082815260200191505060405180910390f35b62000df862003ea2565b604051808273ffffffffffffffffffffffffffffffffffffffff1673ffffffffffffffffffffffffffffffffffffffff16815260200191505060405180910390f35b60036020528060005260406000206000915090508060000160009054906101000a900473ffffffffffffffffffffffffffffffffffffffff16908060010160009054906101000a900473ffffffffffffffffffffffffffffffffffffffff16908060020154908060030154908060040154908060050160009054906101000a900460ff169080600601549080600701549080600801549080600901549080600a01549080600b01549080600c0160009054906101000a900473ffffffffffffffffffffffffffffffffffffffff1690508d565b3373ffffffffffffffffffffffffffffffffffffffff166003600083815260200190815260200160002060000160009054906101000a900473ffffffffffffffffffffffffffffffffffffffff1673ffffffffffffffffffffffffffffffffffffffff161462000fe5576040517f08c379a000000000000000000000000000000000000000000000000000000000815260040180806020018281038252601e8152602001807f4f6e6c79206772616e74206d616e616765722063616e207265766f6b652e000081525060200191505060405180910390fd5b6003600082815260200190815260200160002060050160009054906101000a900460ff1662001060576040517f08c379a000000000000000000000000000000000000000000000000000000000815260040180806020018281038252602b81526020018062005aa6602b913960400191505060405180910390fd5b6000600360008381526020019081526020016000206002015414620010d1576040517f08c379a000000000000000000000000000000000000000000000000000000000815260040180806020018281038252602281526020018062005afd6022913960400191505060405180910390fd5b6000620010de8262003477565b905060006200110d82600360008681526020019081526020016000206006015462003ec890919063ffffffff16565b9050426003600085815260200190815260200160002060020181905550806003600085815260200190815260200160002060030181905550620011cf81600660006003600088815260200190815260200160002060010160009054906101000a900473ffffffffffffffffffffffffffffffffffffffff1673ffffffffffffffffffffffffffffffffffffffff1673ffffffffffffffffffffffffffffffffffffffff1681526020019081526020016000205462003ec890919063ffffffff16565b600660006003600087815260200190815260200160002060010160009054906101000a900473ffffffffffffffffffffffffffffffffffffffff1673ffffffffffffffffffffffffffffffffffffffff1673ffffffffffffffffffffffffffffffffffffffff168152602001908152602001600020819055507f19791073e5f2b48fe653897875e9f5893ac441ce6df89f2053538191e5c47631836040518082815260200191505060405180910390a1505050565b60046020528060005260406000206000915054906101000a900473ffffffffffffffffffffffffffffffffffffffff1681565b60066020528060005260406000206000915090505481565b6000620012dc8262003c57565b90506000811162001339576040517f08c379a000000000000000000000000000000000000000000000000000000000815260040180806020018281038252603f81526020018062005b6c603f913960400191505060405180910390fd5b620013648160036000858152602001908152602001600020600a015462003f1490919063ffffffff16565b60036000848152602001908152602001600020600a01819055506200140881600660006003600087815260200190815260200160002060010160009054906101000a900473ffffffffffffffffffffffffffffffffffffffff1673ffffffffffffffffffffffffffffffffffffffff1673ffffffffffffffffffffffffffffffffffffffff1681526020019081526020016000205462003ec890919063ffffffff16565b600660006003600086815260200190815260200160002060010160009054906101000a900473ffffffffffffffffffffffffffffffffffffffff1673ffffffffffffffffffffffffffffffffffffffff1673ffffffffffffffffffffffffffffffffffffffff16815260200190815260200160002081905550620015066003600084815260200190815260200160002060010160009054906101000a900473ffffffffffffffffffffffffffffffffffffffff1682600160009054906101000a900473ffffffffffffffffffffffffffffffffffffffff1673ffffffffffffffffffffffffffffffffffffffff1662003f9d9092919063ffffffff16565b817f16b38bde3a1f1ffcf6135152793028f56443302494c5c811e63cf5f460a1e093826040518082815260200191505060405180910390a25050565b6000600460008373ffffffffffffffffffffffffffffffffffffffff1673ffffffffffffffffffffffffffffffffffffffff16815260200190815260200160002060009054906101000a900473ffffffffffffffffffffffffffffffffffffffff16905060008173ffffffffffffffffffffffffffffffffffffffff16635c8fb3cf6040518163ffffffff1660e01b815260040160206040518083038186803b158015620015ef57600080fd5b505afa15801562001604573d6000803e3d6000fd5b505050506040513d60208110156200161b57600080fd5b81019080805190602001909291905050509050600060036000838152602001908152602001600020600201541415620016bc576040517f08c379a00000000000000000000000000000000000000000000000000000000081526004018080602001828103825260158152602001807f4772616e74206d757374206265207265766f6b6564000000000000000000000081525060200191505060405180910390fd5b6003600082815260200190815260200160002060000160009054906101000a900473ffffffffffffffffffffffffffffffffffffffff1673ffffffffffffffffffffffffffffffffffffffff163373ffffffffffffffffffffffffffffffffffffffff161462001778576040517f08c379a000000000000000000000000000000000000000000000000000000000815260040180806020018281038252604181526020018062005bd16041913960600191505060405180910390fd5b60008273ffffffffffffffffffffffffffffffffffffffff1663ca9ce2916040518163ffffffff1660e01b8152600401602060405180830381600087803b158015620017c357600080fd5b505af1158015620017d8573d6000803e3d6000fd5b505050506040513d6020811015620017ef57600080fd5b810190808051906020019092919050505090506200182d8160036000858152602001908152602001600020600b015462003ec890919063ffffffff16565b60036000848152602001908152602001600020600b018190555050505050565b6000600460008373ffffffffffffffffffffffffffffffffffffffff1673ffffffffffffffffffffffffffffffffffffffff16815260200190815260200160002060009054906101000a900473ffffffffffffffffffffffffffffffffffffffff16905060008173ffffffffffffffffffffffffffffffffffffffff16632a9a347a6040518163ffffffff1660e01b8152600401602060405180830381600087803b158015620018fc57600080fd5b505af115801562001911573d6000803e3d6000fd5b505050506040513d60208110156200192857600080fd5b8101908080519060200190929190505050905060008273ffffffffffffffffffffffffffffffffffffffff16635c8fb3cf6040518163ffffffff1660e01b815260040160206040518083038186803b1580156200198457600080fd5b505afa15801562001999573d6000803e3d6000fd5b505050506040513d6020811015620019b057600080fd5b81019080805190602001909291905050509050620019ee8260036000848152602001908152602001600020600b015462003ec890919063ffffffff16565b60036000838152602001908152602001600020600b0181905550600460008573ffffffffffffffffffffffffffffffffffffffff1673ffffffffffffffffffffffffffffffffffffffff16815260200190815260200160002060006101000a81549073ffffffffffffffffffffffffffffffffffffffff021916905550505050565b3373ffffffffffffffffffffffffffffffffffffffff166003600086815260200190815260200160002060010160009054906101000a900473ffffffffffffffffffffffffffffffffffffffff1673ffffffffffffffffffffffffffffffffffffffff161462001b2c576040517f08c379a000000000000000000000000000000000000000000000000000000000815260040180806020018281038252602781526020018062005c756027913960400191505060405180910390fd5b600060036000868152602001908152602001600020600201541462001bb9576040517f08c379a000000000000000000000000000000000000000000000000000000000815260040180806020018281038252601f8152602001807f5265766f6b6564206772616e742063616e206e6f74206265207374616b65640081525060200191505060405180910390fd5b600260006003600087815260200190815260200160002060000160009054906101000a900473ffffffffffffffffffffffffffffffffffffffff1673ffffffffffffffffffffffffffffffffffffffff1673ffffffffffffffffffffffffffffffffffffffff16815260200190815260200160002060008473ffffffffffffffffffffffffffffffffffffffff1673ffffffffffffffffffffffffffffffffffffffff16815260200190815260200160002060009054906101000a900460ff1662001cd0576040517f08c379a000000000000000000000000000000000000000000000000000000000815260040180806020018281038252602c81526020018062005ad1602c913960400191505060405180910390fd5b603c81511462001d2c576040517f08c379a000000000000000000000000000000000000000000000000000000000815260040180806020018281038252602781526020018062005c126027913960400191505060405180910390fd5b600062001d446014836200407090919063ffffffff16565b905062001d518562002d9f565b83111562001dab576040517f08c379a000000000000000000000000000000000000000000000000000000000815260040180806020018281038252602c81526020018062005b40602c913960400191505060405180910390fd5b6000600160009054906101000a900473ffffffffffffffffffffffffffffffffffffffff16868660405162001de0906200479d565b808473ffffffffffffffffffffffffffffffffffffffff1673ffffffffffffffffffffffffffffffffffffffff1681526020018381526020018273ffffffffffffffffffffffffffffffffffffffff1673ffffffffffffffffffffffffffffffffffffffff1681526020019350505050604051809103906000f08015801562001e6d573d6000803e3d6000fd5b50905080600460008473ffffffffffffffffffffffffffffffffffffffff1673ffffffffffffffffffffffffffffffffffffffff16815260200190815260200160002060006101000a81548173ffffffffffffffffffffffffffffffffffffffff021916908373ffffffffffffffffffffffffffffffffffffffff160217905550600760006003600089815260200190815260200160002060010160009054906101000a900473ffffffffffffffffffffffffffffffffffffffff1673ffffffffffffffffffffffffffffffffffffffff1673ffffffffffffffffffffffffffffffffffffffff1681526020019081526020016000208290806001815401808255809150509060018203906000526020600020016000909192909190916101000a81548173ffffffffffffffffffffffffffffffffffffffff021916908373ffffffffffffffffffffffffffffffffffffffff160217905550508360036000888152602001908152602001600020600b0160008282540192505081905550600160009054906101000a900473ffffffffffffffffffffffffffffffffffffffff1673ffffffffffffffffffffffffffffffffffffffff1663a9059cbb82866040518363ffffffff1660e01b8152600401808373ffffffffffffffffffffffffffffffffffffffff1673ffffffffffffffffffffffffffffffffffffffff16815260200182815260200192505050602060405180830381600087803b1580156200209557600080fd5b505af1158015620020aa573d6000803e3d6000fd5b505050506040513d6020811015620020c157600080fd5b8101908080519060200190929190505050508073ffffffffffffffffffffffffffffffffffffffff16630e89439b85856040518363ffffffff1660e01b81526004018083815260200180602001828103825283818151815260200191508051906020019080838360005b83811015620021485780820151818401526020810190506200212b565b50505050905090810190601f168015620021765780820380516001836020036101000a031916815260200191505b509350505050600060405180830381600087803b1580156200219757600080fd5b505af1158015620021ac573d6000803e3d6000fd5b50505050857ff05c07b89b3e4ff57b17aa6883ec35e90d7710c57a038c49c3ec3911a80c24458584604051808381526020018273ffffffffffffffffffffffffffffffffffffffff1673ffffffffffffffffffffffffffffffffffffffff1681526020019250505060405180910390a2505050505050565b6000600660008373ffffffffffffffffffffffffffffffffffffffff1673ffffffffffffffffffffffffffffffffffffffff168152602001908152602001600020549050919050565b600560205281600052604060002081815481106200228757fe5b90600052602060002001600091509150505481565b60006003600083815260200190815260200160002090503373ffffffffffffffffffffffffffffffffffffffff168160000160009054906101000a900473ffffffffffffffffffffffffffffffffffffffff1673ffffffffffffffffffffffffffffffffffffffff16146200235d576040517f08c379a000000000000000000000000000000000000000000000000000000000815260040180806020018281038252602f81526020018062005a77602f913960400191505060405180910390fd5b600081600301549050600082600401549050818110620023e5576040517f08c379a000000000000000000000000000000000000000000000000000000000815260040180806020018281038252601d8152602001807f416c6c207265766f6b656420746f6b656e732077697468647261776e2e00000081525060200191505060405180910390fd5b6000620023fc828462003ec890919063ffffffff16565b9050600084600601549050600085600b01549050600086600a015490506000620024588262002449886200243a878962003ec890919063ffffffff16565b62003ec890919063ffffffff16565b62003ec890919063ffffffff16565b905060008111620024d1576040517f08c379a000000000000000000000000000000000000000000000000000000000815260040180806020018281038252601f8152602001807f4e6f207265766f6b656420746f6b656e7320776974686472617761626c652e0081525060200191505060405180910390fd5b6000858210620024e25785620024e4565b815b9050620025353382600160009054906101000a900473ffffffffffffffffffffffffffffffffffffffff1673ffffffffffffffffffffffffffffffffffffffff1662003f9d9092919063ffffffff16565b80896004016000828254019250508190555050505050505050505050565b600160009054906101000a900473ffffffffffffffffffffffffffffffffffffffff1673ffffffffffffffffffffffffffffffffffffffff168273ffffffffffffffffffffffffffffffffffffffff1614620025fb576040517f08c379a000000000000000000000000000000000000000000000000000000000815260040180806020018281038252603c81526020018062005c39603c913960400191505060405180910390fd5b600160009054906101000a900473ffffffffffffffffffffffffffffffffffffffff1673ffffffffffffffffffffffffffffffffffffffff166370a08231856040518263ffffffff1660e01b8152600401808273ffffffffffffffffffffffffffffffffffffffff1673ffffffffffffffffffffffffffffffffffffffff16815260200191505060206040518083038186803b1580156200269b57600080fd5b505afa158015620026b0573d6000803e3d6000fd5b505050506040513d6020811015620026c757600080fd5b81019080805190602001909291905050508311156200274e576040517f08c379a000000000000000000000000000000000000000000000000000000000815260040180806020018281038252601f8152602001807f53656e646572206d757374206861766520656e6f75676820616d6f756e742e0081525060200191505060405180910390fd5b60008060008060008060008780602001905160e08110156200276f57600080fd5b81019080805190602001909291908051906020019092919080519060200190929190805190602001909291908051906020019092919080519060200190929190805190602001909291905050509650965096509650965096509650600073ffffffffffffffffffffffffffffffffffffffff168673ffffffffffffffffffffffffffffffffffffffff1614156200286e576040517f08c379a000000000000000000000000000000000000000000000000000000000815260040180806020018281038252601e8152602001807f4772616e74656520616464726573732063616e2774206265207a65726f2e000081525060200191505060405180910390fd5b84831115620028c9576040517f08c379a000000000000000000000000000000000000000000000000000000000815260040180806020018281038252604881526020018062005d826048913960600191505060405180910390fd5b600073ffffffffffffffffffffffffffffffffffffffff168173ffffffffffffffffffffffffffffffffffffffff1614156200296d576040517f08c379a000000000000000000000000000000000000000000000000000000000815260040180806020018281038252601d8152602001807f5374616b696e6720706f6c6963792063616e2774206265207a65726f2e00000081525060200191505060405180910390fd5b6000806000815480929190600101919050559050604051806101a001604052808973ffffffffffffffffffffffffffffffffffffffff1681526020018873ffffffffffffffffffffffffffffffffffffffff16815260200160008152602001600081526020016000815260200184151581526020018c815260200187815260200186815260200162002a09868862003f1490919063ffffffff16565b815260200160008152602001600081526020018373ffffffffffffffffffffffffffffffffffffffff168152506003600083815260200190815260200160002060008201518160000160006101000a81548173ffffffffffffffffffffffffffffffffffffffff021916908373ffffffffffffffffffffffffffffffffffffffff16021790555060208201518160010160006101000a81548173ffffffffffffffffffffffffffffffffffffffff021916908373ffffffffffffffffffffffffffffffffffffffff16021790555060408201518160020155606082015181600301556080820151816004015560a08201518160050160006101000a81548160ff02191690831515021790555060c0820151816006015560e082015181600701556101008201518160080155610120820151816009015561014082015181600a015561016082015181600b015561018082015181600c0160006101000a81548173ffffffffffffffffffffffffffffffffffffffff021916908373ffffffffffffffffffffffffffffffffffffffff160217905550905050600560008d73ffffffffffffffffffffffffffffffffffffffff1673ffffffffffffffffffffffffffffffffffffffff168152602001908152602001600020819080600181540180825580915050906001820390600052602060002001600090919290919091505550600560008873ffffffffffffffffffffffffffffffffffffffff1673ffffffffffffffffffffffffffffffffffffffff16815260200190815260200160002081908060018154018082558091505090600182039060005260206000200160009091929091909150555062002cc38c308d600160009054906101000a900473ffffffffffffffffffffffffffffffffffffffff1673ffffffffffffffffffffffffffffffffffffffff1662004106909392919063ffffffff16565b62002d178b600660008a73ffffffffffffffffffffffffffffffffffffffff1673ffffffffffffffffffffffffffffffffffffffff1681526020019081526020016000205462003f1490919063ffffffff16565b600660008973ffffffffffffffffffffffffffffffffffffffff1673ffffffffffffffffffffffffffffffffffffffff168152602001908152602001600020819055507f74b1b578efe34f4348abe981c705578eb9c7f0e25fb6e5bb0eeeb33c67854f83816040518082815260200191505060405180910390a1505050505050505050505050565b600080600360008481526020019081526020016000209050600081600201541462002dcf57600091505062002f13565b600081600601549050600082600a01549050600062002df8828462003ec890919063ffffffff16565b9050600084600c0160009054906101000a900473ffffffffffffffffffffffffffffffffffffffff1673ffffffffffffffffffffffffffffffffffffffff1663dab409354286886007015489600801548a60090154896040518763ffffffff1660e01b815260040180878152602001868152602001858152602001848152602001838152602001828152602001965050505050505060206040518083038186803b15801562002ea657600080fd5b505afa15801562002ebb573d6000803e3d6000fd5b505050506040513d602081101562002ed257600080fd5b810190808051906020019092919050505090508181111562002ef2578190505b62002f0b85600b01548262003ec890919063ffffffff16565b955050505050505b919050565b6007602052816000526040600020818154811062002f3257fe5b906000526020600020016000915091509054906101000a900473ffffffffffffffffffffffffffffffffffffffff1681565b6000600460008373ffffffffffffffffffffffffffffffffffffffff1673ffffffffffffffffffffffffffffffffffffffff16815260200190815260200160002060009054906101000a900473ffffffffffffffffffffffffffffffffffffffff16905060008173ffffffffffffffffffffffffffffffffffffffff16635c8fb3cf6040518163ffffffff1660e01b815260040160206040518083038186803b1580156200301157600080fd5b505afa15801562003026573d6000803e3d6000fd5b505050506040513d60208110156200303d57600080fd5b81019080805190602001909291905050509050600060036000838152602001908152602001600020600201541415620030de576040517f08c379a00000000000000000000000000000000000000000000000000000000081526004018080602001828103825260158152602001807f4772616e74206d757374206265207265766f6b6564000000000000000000000081525060200191505060405180910390fd5b6003600082815260200190815260200160002060000160009054906101000a900473ffffffffffffffffffffffffffffffffffffffff1673ffffffffffffffffffffffffffffffffffffffff163373ffffffffffffffffffffffffffffffffffffffff16146200319a576040517f08c379a000000000000000000000000000000000000000000000000000000000815260040180806020018281038252604081526020018062005cbd6040913960400191505060405180910390fd5b8173ffffffffffffffffffffffffffffffffffffffff166392ab89bb6040518163ffffffff1660e01b8152600401600060405180830381600087803b158015620031e357600080fd5b505af1158015620031f8573d6000803e3d6000fd5b50505050505050565b600080600090505b600560008473ffffffffffffffffffffffffffffffffffffffff1673ffffffffffffffffffffffffffffffffffffffff16815260200190815260200160002080549050811015620032d8576000600560008573ffffffffffffffffffffffffffffffffffffffff1673ffffffffffffffffffffffffffffffffffffffff1681526020019081526020016000208281548110620032a157fe5b9060005260206000200154905060036000828152602001908152602001600020600b01548301925050808060010191505062003209565b50809050919050565b600080600080600080600360008881526020019081526020016000206006015460036000898152602001908152602001600020600a0154600360008a8152602001908152602001600020600b0154600360008b815260200190815260200160002060030154600360008c815260200190815260200160002060020154600360008d815260200190815260200160002060010160009054906101000a900473ffffffffffffffffffffffffffffffffffffffff1695509550955095509550955091939550919395565b60008060008060006003600087815260200190815260200160002060000160009054906101000a900473ffffffffffffffffffffffffffffffffffffffff1660036000888152602001908152602001600020600701546003600089815260200190815260200160002060080154600360008a815260200190815260200160002060090154600360008b8152602001908152602001600020600c0160009054906101000a900473ffffffffffffffffffffffffffffffffffffffff169450945094509450945091939590929450565b600080600360008481526020019081526020016000209050600081600201541415620034ce57620034c88160060154826007015483600801548460090154426200420e90949392919063ffffffff16565b620034ec565b620034eb8160030154826006015462003ec890919063ffffffff16565b5b915050919050565b6060600760008373ffffffffffffffffffffffffffffffffffffffff1673ffffffffffffffffffffffffffffffffffffffff168152602001908152602001600020805480602002602001604051908101604052809291908181526020018280548015620035b757602002820191906000526020600020905b8160009054906101000a900473ffffffffffffffffffffffffffffffffffffffff1673ffffffffffffffffffffffffffffffffffffffff16815260200190600101908083116200356c575b50505050509050919050565b6000600460008373ffffffffffffffffffffffffffffffffffffffff1673ffffffffffffffffffffffffffffffffffffffff16815260200190815260200160002060009054906101000a900473ffffffffffffffffffffffffffffffffffffffff16905060008173ffffffffffffffffffffffffffffffffffffffff16635c8fb3cf6040518163ffffffff1660e01b815260040160206040518083038186803b1580156200367057600080fd5b505afa15801562003685573d6000803e3d6000fd5b505050506040513d60208110156200369c57600080fd5b810190808051906020019092919050505090508273ffffffffffffffffffffffffffffffffffffffff163373ffffffffffffffffffffffffffffffffffffffff1614806200374b57506003600082815260200190815260200160002060010160009054906101000a900473ffffffffffffffffffffffffffffffffffffffff1673ffffffffffffffffffffffffffffffffffffffff163373ffffffffffffffffffffffffffffffffffffffff16145b620037a2576040517f08c379a000000000000000000000000000000000000000000000000000000000815260040180806020018281038252602881526020018062005cfd6028913960400191505060405180910390fd5b8173ffffffffffffffffffffffffffffffffffffffff166392ab89bb6040518163ffffffff1660e01b8152600401600060405180830381600087803b158015620037eb57600080fd5b505af115801562003800573d6000803e3d6000fd5b50505050505050565b600073ffffffffffffffffffffffffffffffffffffffff168173ffffffffffffffffffffffffffffffffffffffff16141562003891576040517f08c379a000000000000000000000000000000000000000000000000000000000815260040180806020018281038252602681526020018062005bab6026913960400191505060405180910390fd5b6001600260003373ffffffffffffffffffffffffffffffffffffffff1673ffffffffffffffffffffffffffffffffffffffff16815260200190815260200160002060008373ffffffffffffffffffffffffffffffffffffffff1673ffffffffffffffffffffffffffffffffffffffff16815260200190815260200160002060006101000a81548160ff0219169083151502179055503373ffffffffffffffffffffffffffffffffffffffff167fbac7e51eb022cc795791d1f0eba6e9589981088e2f83d61326ea494b423684d282604051808273ffffffffffffffffffffffffffffffffffffffff1673ffffffffffffffffffffffffffffffffffffffff16815260200191505060405180910390a250565b6000600460008373ffffffffffffffffffffffffffffffffffffffff1673ffffffffffffffffffffffffffffffffffffffff16815260200190815260200160002060009054906101000a900473ffffffffffffffffffffffffffffffffffffffff16905060008173ffffffffffffffffffffffffffffffffffffffff16635c8fb3cf6040518163ffffffff1660e01b815260040160206040518083038186803b15801562003a5057600080fd5b505afa15801562003a65573d6000803e3d6000fd5b505050506040513d602081101562003a7c57600080fd5b810190808051906020019092919050505090508273ffffffffffffffffffffffffffffffffffffffff163373ffffffffffffffffffffffffffffffffffffffff16148062003b2b57506003600082815260200190815260200160002060010160009054906101000a900473ffffffffffffffffffffffffffffffffffffffff1673ffffffffffffffffffffffffffffffffffffffff163373ffffffffffffffffffffffffffffffffffffffff16145b62003b82576040517f08c379a000000000000000000000000000000000000000000000000000000000815260040180806020018281038252603381526020018062005d256033913960400191505060405180910390fd5b60008273ffffffffffffffffffffffffffffffffffffffff1663ca9ce2916040518163ffffffff1660e01b8152600401602060405180830381600087803b15801562003bcd57600080fd5b505af115801562003be2573d6000803e3d6000fd5b505050506040513d602081101562003bf957600080fd5b8101908080519060200190929190505050905062003c378160036000858152602001908152602001600020600b015462003ec890919063ffffffff16565b60036000848152602001908152602001600020600b018190555050505050565b60008062003c658362003477565b9050600060036000858152602001908152602001600020600a01549050600060036000868152602001908152602001600020600b015490508262003cb3828462003f1490919063ffffffff16565b1062003cc6576000935050505062003cf5565b62003cef8162003ce0848662003ec890919063ffffffff16565b62003ec890919063ffffffff16565b93505050505b919050565b6000806000600460008573ffffffffffffffffffffffffffffffffffffffff1673ffffffffffffffffffffffffffffffffffffffff16815260200190815260200160002060009054906101000a900473ffffffffffffffffffffffffffffffffffffffff1673ffffffffffffffffffffffffffffffffffffffff1663fbbf93a06040518163ffffffff1660e01b815260040160606040518083038186803b15801562003da557600080fd5b505afa15801562003dba573d6000803e3d6000fd5b505050506040513d606081101562003dd157600080fd5b810190808051906020019092919080519060200190929190805190602001909291905050509250925092509193909250565b6060600560008373ffffffffffffffffffffffffffffffffffffffff1673ffffffffffffffffffffffffffffffffffffffff16815260200190815260200160002080548060200260200160405190810160405280929190818152602001828054801562003e9057602002820191906000526020600020905b81548152602001906001019080831162003e7b575b50505050509050919050565b60005481565b600160009054906101000a900473ffffffffffffffffffffffffffffffffffffffff1681565b600062003f0c83836040518060400160405280601e81526020017f536166654d6174683a207375627472616374696f6e206f766572666c6f77000081525062004294565b905092915050565b60008082840190508381101562003f93576040517f08c379a000000000000000000000000000000000000000000000000000000000815260040180806020018281038252601b8152602001807f536166654d6174683a206164646974696f6e206f766572666c6f77000000000081525060200191505060405180910390fd5b8091505092915050565b6200406b838473ffffffffffffffffffffffffffffffffffffffff1663a9059cbb905060e01b8484604051602401808373ffffffffffffffffffffffffffffffffffffffff1673ffffffffffffffffffffffffffffffffffffffff16815260200182815260200192505050604051602081830303815290604052907bffffffffffffffffffffffffffffffffffffffffffffffffffffffff19166020820180517bffffffffffffffffffffffffffffffffffffffffffffffffffffffff838183161783525050505062004358565b505050565b60008060148301905082811180156200408a575080845110155b620040e1576040517f08c379a000000000000000000000000000000000000000000000000000000000815260040180806020018281038252602181526020018062005b1f6021913960400191505060405180910390fd5b60006c0100000000000000000000000084602087010151049050809250505092915050565b62004208848573ffffffffffffffffffffffffffffffffffffffff166323b872dd905060e01b858585604051602401808473ffffffffffffffffffffffffffffffffffffffff1673ffffffffffffffffffffffffffffffffffffffff1681526020018373ffffffffffffffffffffffffffffffffffffffff1673ffffffffffffffffffffffffffffffffffffffff1681526020018281526020019350505050604051602081830303815290604052907bffffffffffffffffffffffffffffffffffffffffffffffffffffffff19166020820180517bffffffffffffffffffffffffffffffffffffffffffffffffffffffff838183161783525050505062004358565b50505050565b60008082871090508015620042285760009150506200428b565b60006200423f858962003ec890919063ffffffff16565b9050600086821015905080156200425c578793505050506200428b565b620042858762004276848b620045af90919063ffffffff16565b6200463a90919063ffffffff16565b93505050505b95945050505050565b600083831115829062004345576040517f08c379a00000000000000000000000000000000000000000000000000000000081526004018080602001828103825283818151815260200191508051906020019080838360005b8381101562004309578082015181840152602081019050620042ec565b50505050905090810190601f168015620043375780820380516001836020036101000a031916815260200191505b509250505060405180910390fd5b5060008385039050809150509392505050565b620043798273ffffffffffffffffffffffffffffffffffffffff1662004686565b620043ec576040517f08c379a000000000000000000000000000000000000000000000000000000000815260040180806020018281038252601f8152602001807f5361666545524332303a2063616c6c20746f206e6f6e2d636f6e74726163740081525060200191505060405180910390fd5b600060608373ffffffffffffffffffffffffffffffffffffffff16836040518082805190602001908083835b602083106200443d578051825260208201915060208101905060208303925062004418565b6001836020036101000a0380198251168184511680821785525050505050509050019150506000604051808303816000865af19150503d8060008114620044a1576040519150601f19603f3d011682016040523d82523d6000602084013e620044a6565b606091505b5091509150816200451f576040517f08c379a00000000000000000000000000000000000000000000000000000000081526004018080602001828103825260208152602001807f5361666545524332303a206c6f772d6c6576656c2063616c6c206661696c656481525060200191505060405180910390fd5b600081511115620045a9578080602001905160208110156200454057600080fd5b8101908080519060200190929190505050620045a8576040517f08c379a000000000000000000000000000000000000000000000000000000000815260040180806020018281038252602a81526020018062005d58602a913960400191505060405180910390fd5b5b50505050565b600080831415620045c4576000905062004634565b6000828402905082848281620045d657fe5b04146200462f576040517f08c379a000000000000000000000000000000000000000000000000000000000815260040180806020018281038252602181526020018062005c9c6021913960400191505060405180910390fd5b809150505b92915050565b60006200467e83836040518060400160405280601a81526020017f536166654d6174683a206469766973696f6e206279207a65726f000000000000815250620046d2565b905092915050565b60008060007fc5d2460186f7233c927e7db2dcc703c0e500b653ca82273b7bfad8045d85a47060001b9050833f91506000801b8214158015620046c95750808214155b92505050919050565b6000808311829062004782576040517f08c379a00000000000000000000000000000000000000000000000000000000081526004018080602001828103825283818151815260200191508051906020019080838360005b838110156200474657808201518184015260208101905062004729565b50505050905090810190601f168015620047745780820380516001836020036101000a031916815260200191505b509250505060405180910390fd5b5060008385816200478f57fe5b049050809150509392505050565b6112cb80620047ac8339019056fe608060405234801561001057600080fd5b506040516112cb3803806112cb8339818101604052606081101561003357600080fd5b81019080805190602001909291908051906020019092919080519060200190929190505050600073ffffffffffffffffffffffffffffffffffffffff168373ffffffffffffffffffffffffffffffffffffffff1614156100fb576040517f08c379a000000000000000000000000000000000000000000000000000000000815260040180806020018281038252601c8152602001807f546f6b656e20616464726573732063616e2774206265207a65726f2e0000000081525060200191505060405180910390fd5b600073ffffffffffffffffffffffffffffffffffffffff168173ffffffffffffffffffffffffffffffffffffffff161415610181576040517f08c379a00000000000000000000000000000000000000000000000000000000081526004018080602001828103825260278152602001806112a46027913960400191505060405180910390fd5b826000806101000a81548173ffffffffffffffffffffffffffffffffffffffff021916908373ffffffffffffffffffffffffffffffffffffffff16021790555033600260006101000a81548173ffffffffffffffffffffffffffffffffffffffff021916908373ffffffffffffffffffffffffffffffffffffffff1602179055508160038190555080600160006101000a81548173ffffffffffffffffffffffffffffffffffffffff021916908373ffffffffffffffffffffffffffffffffffffffff1602179055505050506110488061025c6000396000f3fe608060405234801561001057600080fd5b50600436106100885760003560e01c806392ab89bb1161005b57806392ab89bb146101d8578063ca9ce291146101e2578063d321fe2914610200578063fbbf93a01461021e57610088565b80630e89439b1461008d5780632a9a347a146101525780635c8fb3cf146101705780638e68dce41461018e575b600080fd5b610150600480360360408110156100a357600080fd5b8101908080359060200190929190803590602001906401000000008111156100ca57600080fd5b8201836020820111156100dc57600080fd5b803590602001918460018302840111640100000000831117156100fe57600080fd5b91908080601f016020809104026020016040519081016040528093929190818152602001838380828437600081840152601f19601f820116905080830192505050505050509192919290505050610276565b005b61015a6104e7565b6040518082815260200191505060405180910390f35b610178610694565b6040518082815260200191505060405180910390f35b610196610761565b604051808273ffffffffffffffffffffffffffffffffffffffff1673ffffffffffffffffffffffffffffffffffffffff16815260200191505060405180910390f35b6101e061084e565b005b6101ea6109ee565b6040518082815260200191505060405180910390f35b610208610b9b565b6040518082815260200191505060405180910390f35b610226610c68565b604051808481526020018381526020018273ffffffffffffffffffffffffffffffffffffffff1673ffffffffffffffffffffffffffffffffffffffff168152602001935050505060405180910390f35b600260009054906101000a900473ffffffffffffffffffffffffffffffffffffffff1673ffffffffffffffffffffffffffffffffffffffff163373ffffffffffffffffffffffffffffffffffffffff1614610339576040517f08c379a000000000000000000000000000000000000000000000000000000000815260040180806020018281038252601d8152602001807f466f7220746f6b656e206772616e7420636f6e7472616374206f6e6c7900000081525060200191505060405180910390fd5b81600481905550610354601482610d6490919063ffffffff16565b600560006101000a81548173ffffffffffffffffffffffffffffffffffffffff021916908373ffffffffffffffffffffffffffffffffffffffff1602179055506000809054906101000a900473ffffffffffffffffffffffffffffffffffffffff1673ffffffffffffffffffffffffffffffffffffffff1663cae9ca51600160009054906101000a900473ffffffffffffffffffffffffffffffffffffffff1684846040518463ffffffff1660e01b8152600401808473ffffffffffffffffffffffffffffffffffffffff1673ffffffffffffffffffffffffffffffffffffffff16815260200183815260200180602001828103825283818151815260200191508051906020019080838360005b8381101561047d578082015181840152602081019050610462565b50505050905090810190601f1680156104aa5780820380516001836020036101000a031916815260200191505b50945050505050600060405180830381600087803b1580156104cb57600080fd5b505af11580156104df573d6000803e3d6000fd5b505050505050565b6000600260009054906101000a900473ffffffffffffffffffffffffffffffffffffffff1673ffffffffffffffffffffffffffffffffffffffff163373ffffffffffffffffffffffffffffffffffffffff16146105ac576040517f08c379a000000000000000000000000000000000000000000000000000000000815260040180806020018281038252601d8152602001807f466f7220746f6b656e206772616e7420636f6e7472616374206f6e6c7900000081525060200191505060405180910390fd5b600160009054906101000a900473ffffffffffffffffffffffffffffffffffffffff1673ffffffffffffffffffffffffffffffffffffffff1663525835f9600560009054906101000a900473ffffffffffffffffffffffffffffffffffffffff166040518263ffffffff1660e01b8152600401808273ffffffffffffffffffffffffffffffffffffffff1673ffffffffffffffffffffffffffffffffffffffff168152602001915050600060405180830381600087803b15801561066f57600080fd5b505af1158015610683573d6000803e3d6000fd5b5050505061068f610df7565b905090565b6000600260009054906101000a900473ffffffffffffffffffffffffffffffffffffffff1673ffffffffffffffffffffffffffffffffffffffff163373ffffffffffffffffffffffffffffffffffffffff1614610759576040517f08c379a000000000000000000000000000000000000000000000000000000000815260040180806020018281038252601d8152602001807f466f7220746f6b656e206772616e7420636f6e7472616374206f6e6c7900000081525060200191505060405180910390fd5b600354905090565b6000600260009054906101000a900473ffffffffffffffffffffffffffffffffffffffff1673ffffffffffffffffffffffffffffffffffffffff163373ffffffffffffffffffffffffffffffffffffffff1614610826576040517f08c379a000000000000000000000000000000000000000000000000000000000815260040180806020018281038252601d8152602001807f466f7220746f6b656e206772616e7420636f6e7472616374206f6e6c7900000081525060200191505060405180910390fd5b600160009054906101000a900473ffffffffffffffffffffffffffffffffffffffff16905090565b600260009054906101000a900473ffffffffffffffffffffffffffffffffffffffff1673ffffffffffffffffffffffffffffffffffffffff163373ffffffffffffffffffffffffffffffffffffffff1614610911576040517f08c379a000000000000000000000000000000000000000000000000000000000815260040180806020018281038252601d8152602001807f466f7220746f6b656e206772616e7420636f6e7472616374206f6e6c7900000081525060200191505060405180910390fd5b600160009054906101000a900473ffffffffffffffffffffffffffffffffffffffff1673ffffffffffffffffffffffffffffffffffffffff1663da8be864600560009054906101000a900473ffffffffffffffffffffffffffffffffffffffff166040518263ffffffff1660e01b8152600401808273ffffffffffffffffffffffffffffffffffffffff1673ffffffffffffffffffffffffffffffffffffffff168152602001915050600060405180830381600087803b1580156109d457600080fd5b505af11580156109e8573d6000803e3d6000fd5b50505050565b6000600260009054906101000a900473ffffffffffffffffffffffffffffffffffffffff1673ffffffffffffffffffffffffffffffffffffffff163373ffffffffffffffffffffffffffffffffffffffff1614610ab3576040517f08c379a000000000000000000000000000000000000000000000000000000000815260040180806020018281038252601d8152602001807f466f7220746f6b656e206772616e7420636f6e7472616374206f6e6c7900000081525060200191505060405180910390fd5b600160009054906101000a900473ffffffffffffffffffffffffffffffffffffffff1673ffffffffffffffffffffffffffffffffffffffff1663e064172e600560009054906101000a900473ffffffffffffffffffffffffffffffffffffffff166040518263ffffffff1660e01b8152600401808273ffffffffffffffffffffffffffffffffffffffff1673ffffffffffffffffffffffffffffffffffffffff168152602001915050600060405180830381600087803b158015610b7657600080fd5b505af1158015610b8a573d6000803e3d6000fd5b50505050610b96610df7565b905090565b6000600260009054906101000a900473ffffffffffffffffffffffffffffffffffffffff1673ffffffffffffffffffffffffffffffffffffffff163373ffffffffffffffffffffffffffffffffffffffff1614610c60576040517f08c379a000000000000000000000000000000000000000000000000000000000815260040180806020018281038252601d8152602001807f466f7220746f6b656e206772616e7420636f6e7472616374206f6e6c7900000081525060200191505060405180910390fd5b600454905090565b6000806000600260009054906101000a900473ffffffffffffffffffffffffffffffffffffffff1673ffffffffffffffffffffffffffffffffffffffff163373ffffffffffffffffffffffffffffffffffffffff1614610d30576040517f08c379a000000000000000000000000000000000000000000000000000000000815260040180806020018281038252601d8152602001807f466f7220746f6b656e206772616e7420636f6e7472616374206f6e6c7900000081525060200191505060405180910390fd5b600354600454600160009054906101000a900473ffffffffffffffffffffffffffffffffffffffff16925092509250909192565b6000806014830190508281118015610d7d575080845110155b610dd2576040517f08c379a0000000000000000000000000000000000000000000000000000000008152600401808060200182810382526021815260200180610ff36021913960400191505060405180910390fd5b60006c0100000000000000000000000084602087010151049050809250505092915050565b6000806000809054906101000a900473ffffffffffffffffffffffffffffffffffffffff1673ffffffffffffffffffffffffffffffffffffffff166370a08231306040518263ffffffff1660e01b8152600401808273ffffffffffffffffffffffffffffffffffffffff1673ffffffffffffffffffffffffffffffffffffffff16815260200191505060206040518083038186803b158015610e9857600080fd5b505afa158015610eac573d6000803e3d6000fd5b505050506040513d6020811015610ec257600080fd5b81019080805190602001909291905050509050806004600082825403925050819055506000809054906101000a900473ffffffffffffffffffffffffffffffffffffffff1673ffffffffffffffffffffffffffffffffffffffff1663a9059cbb600260009054906101000a900473ffffffffffffffffffffffffffffffffffffffff16836040518363ffffffff1660e01b8152600401808373ffffffffffffffffffffffffffffffffffffffff1673ffffffffffffffffffffffffffffffffffffffff16815260200182815260200192505050602060405180830381600087803b158015610faf57600080fd5b505af1158015610fc3573d6000803e3d6000fd5b505050506040513d6020811015610fd957600080fd5b810190808051906020019092919050505050809150509056fe4164647265737320636f6e76657273696f6e206f7574206f6620626f756e64732ea265627a7a723158209692d490ef0a9ecddc7b0bf88b2a6f1f6dbf568cf6d3fded9113fecca5eefb8864736f6c634300051100325374616b696e6720636f6e747261637420616464726573732063616e2774206265207a65726f2e4f6e6c79206772616e74206d616e616765722063616e207769746864726177207265766f6b656420746f6b656e732e4772616e74206d757374206265207265766f6361626c6520696e2074686520666972737420706c6163652e50726f7669646564207374616b696e6720636f6e7472616374206973206e6f7420617574686f72697a65642e4772616e74206d757374206e6f7420626520616c7265616479207265766f6b65642e4164647265737320636f6e76657273696f6e206f7574206f6620626f756e64732e4d757374206861766520617661696c61626c65206772616e74656420616d6f756e7420746f207374616b652e4772616e7420617661696c61626c6520746f20776974686472617720616d6f756e742073686f756c642062652067726561746572207468616e207a65726f2e5374616b696e6720636f6e747261637420616464726573732063616e2774206265207a65726f4f6e6c79206772616e74206d616e616765722063616e20666f7263652063616e63656c6c6174696f6e206f66207265766f6b6564206772616e74207374616b652e5374616b652064656c65676174696f6e2064617461206d7573742062652070726f76696465642e546f6b656e20636f6e7472616374206d757374206265207468652073616d65206f6e65206c696e6b656420746f207468697320636f6e74726163742e4f6e6c79206772616e746565206f6620746865206772616e742063616e207374616b652069742e536166654d6174683a206d756c7469706c69636174696f6e206f766572666c6f774f6e6c79206772616e74206d616e616765722063616e20666f72636520756e64656c65676174696f6e206f66207265766f6b6564206772616e74207374616b654f6e6c79206f70657261746f72206f72206772616e7465652063616e20756e64656c65676174652e4f6e6c79206f70657261746f72206f72206772616e7465652063616e2063616e63656c207468652064656c65676174696f6e2e5361666545524332303a204552433230206f7065726174696f6e20646964206e6f742073756363656564556e6c6f636b696e6720636c696666206475726174696f6e206d757374206265206c657373206f7220657175616c20746f74616c20756e6c6f636b696e67206475726174696f6e2ea265627a7a72315820fb9d3ea9d60b0e795c9a5890a352f65b7365f51910006bed9be6b3843bf51a9e64736f6c63430005110032",
  "source": "pragma solidity 0.5.17;\n\nimport \"openzeppelin-solidity/contracts/token/ERC20/ERC20Burnable.sol\";\nimport \"openzeppelin-solidity/contracts/token/ERC20/SafeERC20.sol\";\nimport \"openzeppelin-solidity/contracts/math/SafeMath.sol\";\nimport \"./libraries/grant/UnlockingSchedule.sol\";\nimport \"./utils/BytesLib.sol\";\nimport \"./utils/AddressArrayUtils.sol\";\nimport \"./TokenStaking.sol\";\nimport \"./TokenGrantStake.sol\";\nimport \"./GrantStakingPolicy.sol\";\n\n\n/// @title TokenGrant\n/// @notice A token grant contract for a specified standard ERC20Burnable token.\n/// Has additional functionality to stake delegate/undelegate token grants.\n/// Tokens are granted to the grantee via unlocking scheme and can be\n/// withdrawn gradually based on the unlocking schedule cliff and unlocking duration.\n/// Optionally grant can be revoked by the token grant manager.\ncontract TokenGrant {\n    using SafeMath for uint256;\n    using UnlockingSchedule for uint256;\n    using SafeERC20 for ERC20Burnable;\n    using BytesLib for bytes;\n    using AddressArrayUtils for address[];\n\n    event TokenGrantCreated(uint256 id);\n    event TokenGrantWithdrawn(uint256 indexed grantId, uint256 amount);\n    event TokenGrantStaked(uint256 indexed grantId, uint256 amount, address operator);\n    event TokenGrantRevoked(uint256 id);\n\n    event StakingContractAuthorized(address indexed grantManager, address stakingContract);\n\n    struct Grant {\n        address grantManager; // Token grant manager.\n        address grantee; // Address to which granted tokens are going to be withdrawn.\n        uint256 revokedAt; // Timestamp at which grant was revoked by the grant manager.\n        uint256 revokedAmount; // The number of tokens revoked from the grantee.\n        uint256 revokedWithdrawn; // The number of tokens returned to the grant creator.\n        bool revocable; // Whether grant manager can revoke the grant.\n        uint256 amount; // Amount of tokens to be granted.\n        uint256 duration; // Duration in seconds of the period in which the granted tokens will unlock.\n        uint256 start; // Timestamp at which the linear unlocking schedule will start.\n        uint256 cliff; // Timestamp before which no tokens will be unlocked.\n        uint256 withdrawn; // Amount that was withdrawn to the grantee.\n        uint256 staked; // Amount that was staked by the grantee.\n        GrantStakingPolicy stakingPolicy;\n    }\n\n    uint256 public numGrants;\n\n    ERC20Burnable public token;\n\n    // Staking contracts authorized by the given grant manager.\n    // grant manager -> staking contract -> authorized?\n    mapping(address => mapping (address => bool)) internal stakingContracts;\n\n    // Token grants.\n    mapping(uint256 => Grant) public grants;\n\n    // Token grants stakes.\n    mapping(address => TokenGrantStake) public grantStakes;\n\n    // Mapping of token grant IDs per particular address\n    // involved in a grant as a grantee or as a grant manager.\n    mapping(address => uint256[]) public grantIndices;\n\n    // Token grants balances. Sum of all granted tokens to a grantee.\n    // This includes granted tokens that are already unlocked and\n    // available to be withdrawn to the grantee\n    mapping(address => uint256) public balances;\n\n    // Mapping of operator addresses per particular grantee address.\n    mapping(address => address[]) public granteesToOperators;\n\n    /// @notice Creates a token grant contract for a provided Standard ERC20Burnable token.\n    /// @param _tokenAddress address of a token that will be linked to this contract.\n    constructor(address _tokenAddress) public {\n        require(_tokenAddress != address(0x0), \"Token address can't be zero.\");\n        token = ERC20Burnable(_tokenAddress);\n    }\n\n    /// @notice Used by grant manager to authorize staking contract with the given\n    /// address.\n    function authorizeStakingContract(address _stakingContract) public {\n        require(\n            _stakingContract != address(0x0),\n            \"Staking contract address can't be zero\"\n        );\n        stakingContracts[msg.sender][_stakingContract] = true;\n        emit StakingContractAuthorized(msg.sender, _stakingContract);\n    }\n\n    /// @notice Gets the amount of granted tokens to the specified address.\n    /// @param _owner The address to query the grants balance of.\n    /// @return An uint256 representing the grants balance owned by the passed address.\n    function balanceOf(address _owner) public view returns (uint256 balance) {\n        return balances[_owner];\n    }\n\n    /// @notice Gets the stake balance of the specified address.\n    /// @param _address The address to query the balance of.\n    /// @return An uint256 representing the amount staked by the passed address.\n    function stakeBalanceOf(address _address) public view returns (uint256 balance) {\n        for (uint i = 0; i < grantIndices[_address].length; i++) {\n            uint256 id = grantIndices[_address][i];\n            balance += grants[id].staked;\n        }\n        return balance;\n    }\n\n    /// @notice Gets grant by ID. Returns only basic grant data.\n    /// If you need unlocking schedule for the grant you must call `getGrantUnlockingSchedule()`\n    /// This is to avoid Ethereum `Stack too deep` issue described here:\n    /// https://forum.ethereum.org/discussion/2400/error-stack-too-deep-try-removing-local-variables\n    /// @param _id ID of the token grant.\n    /// @return amount The amount of tokens the grant provides.\n    /// @return withdrawn The amount of tokens that have already been withdrawn\n    ///                   from the grant.\n    /// @return staked The amount of tokens that have been staked from the grant.\n    /// @return revoked A boolean indicating whether the grant has been revoked,\n    ///                 which is to say that it is no longer unlocking.\n    /// @return grantee The grantee of grant.\n    function getGrant(uint256 _id) public view returns (\n        uint256 amount,\n        uint256 withdrawn,\n        uint256 staked,\n        uint256 revokedAmount,\n        uint256 revokedAt,\n        address grantee\n    ) {\n        return (\n            grants[_id].amount,\n            grants[_id].withdrawn,\n            grants[_id].staked,\n            grants[_id].revokedAmount,\n            grants[_id].revokedAt,\n            grants[_id].grantee\n        );\n    }\n\n    /// @notice Gets grant unlocking schedule by grant ID.\n    /// @param _id ID of the token grant.\n    /// @return grantManager The address designated as the manager of the grant,\n    ///                      which is the only address that can revoke this grant.\n    /// @return duration The duration, in seconds, during which the tokens will\n    ///                  unlocking linearly.\n    /// @return start The start time, as a timestamp comparing to `now`.\n    /// @return cliff The timestamp, before which none of the tokens in the grant\n    ///               will be unlocked, and after which a linear amount based on\n    ///               the time elapsed since the start will be unlocked.\n    /// @return policy The address of the grant's staking policy.\n    function getGrantUnlockingSchedule(\n        uint256 _id\n    ) public view returns (\n        address grantManager,\n        uint256 duration,\n        uint256 start,\n        uint256 cliff,\n        address policy\n    ) {\n        return (\n            grants[_id].grantManager,\n            grants[_id].duration,\n            grants[_id].start,\n            grants[_id].cliff,\n            address(grants[_id].stakingPolicy)\n        );\n    }\n\n    /// @notice Gets grant ids of the specified address.\n    /// @param _granteeOrGrantManager The address to query.\n    /// @return An uint256 array of grant IDs.\n    function getGrants(address _granteeOrGrantManager) public view returns (uint256[] memory) {\n        return grantIndices[_granteeOrGrantManager];\n    }\n\n    /// @notice Gets operator addresses of the specified grantee address.\n    /// @param grantee The grantee address.\n    /// @return An array of all operators for a given grantee.\n    function getGranteeOperators(address grantee) public view returns (address[] memory) {\n        return granteesToOperators[grantee];\n    }\n\n    /// @notice Gets grant stake details of the given operator.\n    /// @param operator The operator address.\n    /// @return grantId ID of the token grant.\n    /// @return amount The amount of tokens the given operator delegated.\n    /// @return stakingContract The address of staking contract.\n    function getGrantStakeDetails(address operator) public view returns (uint256 grantId, uint256 amount, address stakingContract) {\n        return grantStakes[operator].getDetails();\n    }\n\n\n    /// @notice Receives approval of token transfer and creates a token grant with a unlocking\n    /// schedule where balance withdrawn to the grantee gradually in a linear fashion until\n    /// start + duration. By then all of the balance will have unlocked.\n    /// @param _from The owner of the tokens who approved them to transfer.\n    /// @param _amount Approved amount for the transfer to create token grant.\n    /// @param _token Token contract address.\n    /// @param _extraData This byte array must have the following values ABI encoded:\n    /// grantManager (address) Address of the grant manager.\n    /// grantee (address) Address of the grantee.\n    /// duration (uint256) Duration in seconds of the unlocking period.\n    /// start (uint256) Timestamp at which unlocking will start.\n    /// cliffDuration (uint256) Duration in seconds of the cliff;\n    ///               no tokens will be unlocked until the time `start + cliff`.\n    /// revocable (bool) Whether the token grant is revocable or not (1 or 0).\n    /// stakingPolicy (address) Address of the staking policy for the grant.\n    function receiveApproval(address _from, uint256 _amount, address _token, bytes memory _extraData) public {\n        require(ERC20Burnable(_token) == token, \"Token contract must be the same one linked to this contract.\");\n        require(_amount <= token.balanceOf(_from), \"Sender must have enough amount.\");\n        (address _grantManager,\n         address _grantee,\n         uint256 _duration,\n         uint256 _start,\n         uint256 _cliffDuration,\n         bool _revocable,\n         address _stakingPolicy) = abi.decode(\n             _extraData,\n             (address, address, uint256, uint256, uint256, bool, address)\n        );\n\n        require(_grantee != address(0), \"Grantee address can't be zero.\");\n        require(\n            _cliffDuration <= _duration,\n            \"Unlocking cliff duration must be less or equal total unlocking duration.\"\n        );\n\n        require(_stakingPolicy != address(0), \"Staking policy can't be zero.\");\n\n        uint256 id = numGrants++;\n        grants[id] = Grant(\n            _grantManager,\n            _grantee,\n            0, 0, 0,\n            _revocable,\n            _amount,\n            _duration,\n            _start,\n            _start.add(_cliffDuration),\n            0, 0,\n            GrantStakingPolicy(_stakingPolicy)\n        );\n\n        // Maintain a record to make it easier to query grants by grant manager.\n        grantIndices[_from].push(id);\n\n        // Maintain a record to make it easier to query grants by grantee.\n        grantIndices[_grantee].push(id);\n\n        token.safeTransferFrom(_from, address(this), _amount);\n\n        // Maintain a record of the unlocked amount\n        balances[_grantee] = balances[_grantee].add(_amount);\n        emit TokenGrantCreated(id);\n    }\n\n    /// @notice Withdraws Token grant amount to grantee.\n    /// @dev Transfers unlocked tokens of the token grant to grantee.\n    /// @param _id Grant ID.\n    function withdraw(uint256 _id) public {\n        uint256 amount = withdrawable(_id);\n        require(amount > 0, \"Grant available to withdraw amount should be greater than zero.\");\n\n        // Update withdrawn amount.\n        grants[_id].withdrawn = grants[_id].withdrawn.add(amount);\n\n        // Update grantee grants balance.\n        balances[grants[_id].grantee] = balances[grants[_id].grantee].sub(amount);\n\n        // Transfer tokens from this contract balance to the grantee token balance.\n        token.safeTransfer(grants[_id].grantee, amount);\n\n        emit TokenGrantWithdrawn(_id, amount);\n    }\n\n    /// @notice Calculates and returns unlocked grant amount.\n    /// @dev Calculates token grant amount that has already unlocked,\n    /// including any tokens that have already been withdrawn by the grantee as well\n    /// as any tokens that are available to withdraw but have not yet been withdrawn.\n    /// @param _id Grant ID.\n    function unlockedAmount(uint256 _id) public view returns (uint256) {\n        Grant storage grant = grants[_id];\n        return (grant.revokedAt != 0)\n            // Grant revoked -> return what is remaining\n            ? grant.amount.sub(grant.revokedAmount)\n            // Not revoked -> calculate the unlocked amount normally\n            : now.getUnlockedAmount(\n                grant.amount,\n                grant.duration,\n                grant.start,\n                grant.cliff\n            );\n    }\n\n    /// @notice Calculates withdrawable granted amount.\n    /// @dev Calculates the amount that has already unlocked but hasn't been withdrawn yet.\n    /// @param _id Grant ID.\n    function withdrawable(uint256 _id) public view returns (uint256) {\n        uint256 unlocked = unlockedAmount(_id);\n        uint256 withdrawn = grants[_id].withdrawn;\n        uint256 staked = grants[_id].staked;\n\n        if (withdrawn.add(staked) >= unlocked) {\n            return 0;\n        } else {\n            return unlocked.sub(withdrawn).sub(staked);\n        }\n    }\n\n    /// @notice Allows the grant manager to revoke the grant.\n    /// @dev Granted tokens that are already unlocked (releasable amount)\n    /// remain in the grant so grantee can still withdraw them\n    /// the rest are revoked and withdrawable by token grant manager.\n    /// @param _id Grant ID.\n    function revoke(uint256 _id) public {\n        require(grants[_id].grantManager == msg.sender, \"Only grant manager can revoke.\");\n        require(grants[_id].revocable, \"Grant must be revocable in the first place.\");\n        require(grants[_id].revokedAt == 0, \"Grant must not be already revoked.\");\n\n        uint256 unlockedAmount = unlockedAmount(_id);\n        uint256 revokedAmount = grants[_id].amount.sub(unlockedAmount);\n        grants[_id].revokedAt = now;\n        grants[_id].revokedAmount = revokedAmount;\n\n        // Update grantee's grants balance.\n        balances[grants[_id].grantee] = balances[grants[_id].grantee].sub(revokedAmount);\n        emit TokenGrantRevoked(_id);\n    }\n\n    /// @notice Allows the grant manager to withdraw revoked tokens.\n    /// @dev Will withdraw as many of the revoked tokens as possible\n    /// without pushing the grant contract into a token deficit.\n    /// If the grantee has staked more tokens than the unlocked amount,\n    /// those tokens will remain in the grant until undelegated and returned,\n    /// after which they can be withdrawn by calling `withdrawRevoked` again.\n    /// @param _id Grant ID.\n    function withdrawRevoked(uint256 _id) public {\n        Grant storage grant = grants[_id];\n        require(\n            grant.grantManager == msg.sender,\n            \"Only grant manager can withdraw revoked tokens.\"\n        );\n        uint256 revoked = grant.revokedAmount;\n        uint256 revokedWithdrawn = grant.revokedWithdrawn;\n        require(revokedWithdrawn < revoked, \"All revoked tokens withdrawn.\");\n\n        uint256 revokedRemaining = revoked.sub(revokedWithdrawn);\n\n        uint256 totalAmount = grant.amount;\n        uint256 staked = grant.staked;\n        uint256 granteeWithdrawn = grant.withdrawn;\n        uint256 remainingPresentInGrant =\n            totalAmount.sub(staked).sub(revokedWithdrawn).sub(granteeWithdrawn);\n\n        require(remainingPresentInGrant > 0, \"No revoked tokens withdrawable.\");\n\n        uint256 amountToWithdraw = remainingPresentInGrant < revokedRemaining\n            ? remainingPresentInGrant\n            : revokedRemaining;\n        token.safeTransfer(msg.sender, amountToWithdraw);\n        grant.revokedWithdrawn += amountToWithdraw;\n    }\n\n    /// @notice Stake token grant.\n    /// @dev Stakable token grant amount is determined\n    /// by the grant's staking policy.\n    /// @param _id Grant Id.\n    /// @param _stakingContract Address of the staking contract.\n    /// @param _amount Amount to stake.\n    /// @param _extraData Data for stake delegation. This byte array must have\n    /// the following values concatenated:\n    /// - Beneficiary address (20 bytes)\n    /// - Operator address (20 bytes)\n    /// - Authorizer address (20 bytes)\n    function stake(uint256 _id, address _stakingContract, uint256 _amount, bytes memory _extraData) public {\n        require(grants[_id].grantee == msg.sender, \"Only grantee of the grant can stake it.\");\n        require(grants[_id].revokedAt == 0, \"Revoked grant can not be staked\");\n        require(\n            stakingContracts[grants[_id].grantManager][_stakingContract],\n            \"Provided staking contract is not authorized.\"\n        );\n\n        // Expecting 60 bytes _extraData for stake delegation.\n        require(_extraData.length == 60, \"Stake delegation data must be provided.\");\n        address operator = _extraData.toAddress(20);\n\n        // Calculate available amount. Amount of unlocked tokens minus what user already withdrawn and staked.\n        require(_amount <= availableToStake(_id), \"Must have available granted amount to stake.\");\n\n        // Keep staking record.\n        TokenGrantStake grantStake = new TokenGrantStake(\n            address(token),\n            _id,\n            _stakingContract\n        );\n        grantStakes[operator] = grantStake;\n        granteesToOperators[grants[_id].grantee].push(operator);\n        grants[_id].staked += _amount;\n\n        token.transfer(address(grantStake), _amount);\n\n        // Staking contract expects 40 bytes _extraData for stake delegation.\n        // 20 bytes beneficiary's address + 20 bytes operator's address.\n        grantStake.stake(_amount, _extraData);\n        emit TokenGrantStaked(_id, _amount, operator);\n    }\n\n    ///  @notice Returns the amount of tokens available for staking from the grant.\n    /// The stakeable amount is determined by the staking policy of the grant.\n    /// If the grantee has withdrawn some tokens\n    /// or the policy returns an erroneously high value,\n    /// the stakeable amount is limited to the number of tokens remaining.\n    /// @param _grantId Identifier of the grant\n    function availableToStake(uint256 _grantId) public view returns (uint256) {\n        Grant storage grant = grants[_grantId];\n        // Revoked grants cannot be staked.\n        // If the grant isn't revoked, the number of revoked tokens is 0.\n        if (grant.revokedAt != 0) { return 0; }\n        uint256 amount = grant.amount;\n        uint256 withdrawn = grant.withdrawn;\n        uint256 remaining = amount.sub(withdrawn);\n        uint256 stakeable = grant.stakingPolicy.getStakeableAmount(\n            now,\n            amount,\n            grant.duration,\n            grant.start,\n            grant.cliff,\n            withdrawn\n        );\n        // Clamp the stakeable amount to what is left in the grant\n        // in the case of a malfunctioning staking policy.\n        if (stakeable > remaining) {\n            stakeable = remaining;\n        }\n\n        return stakeable.sub(grant.staked);\n    }\n\n    /// @notice Cancels delegation within the operator initialization period\n    /// without being subjected to the stake lockup for the undelegation period.\n    /// This can be used to undo mistaken delegation to the wrong operator address.\n    /// @param _operator Address of the stake operator.\n    function cancelStake(address _operator) public {\n        TokenGrantStake grantStake = grantStakes[_operator];\n        uint256 grantId = grantStake.getGrantId();\n        require(\n            msg.sender == _operator || msg.sender == grants[grantId].grantee,\n            \"Only operator or grantee can cancel the delegation.\"\n        );\n\n        uint256 returned = grantStake.cancelStake();\n        grants[grantId].staked = grants[grantId].staked.sub(returned);\n    }\n\n    /// @notice Undelegate the token grant.\n    /// @param _operator Operator of the stake.\n    function undelegate(address _operator) public {\n        TokenGrantStake grantStake = grantStakes[_operator];\n        uint256 grantId = grantStake.getGrantId();\n        require(\n            msg.sender == _operator || msg.sender == grants[grantId].grantee,\n            \"Only operator or grantee can undelegate.\"\n        );\n\n        grantStake.undelegate();\n    }\n\n    /// @notice Force cancellation of a revoked grant's stake.\n    /// Can be used by the grant manager\n    /// to immediately withdraw tokens back into the grant,\n    /// from an operator still within the initialization period.\n    /// These tokens can then be withdrawn\n    /// if some revoked tokens haven't been withdrawn yet.\n    function cancelRevokedStake(address _operator) public {\n        TokenGrantStake grantStake = grantStakes[_operator];\n        uint256 grantId = grantStake.getGrantId();\n        require(\n            grants[grantId].revokedAt != 0,\n            \"Grant must be revoked\"\n        );\n        require(\n            msg.sender == grants[grantId].grantManager,\n            \"Only grant manager can force cancellation of revoked grant stake.\"\n        );\n\n        uint256 returned = grantStake.cancelStake();\n        grants[grantId].staked = grants[grantId].staked.sub(returned);\n    }\n\n    /// @notice Force undelegation of a revoked grant's stake.\n    /// @dev Can be called by the grant manager once the grant is revoked.\n    /// Has to be done this way, instead of undelegating all operators when the\n    /// grant is revoked, because the latter method is vulnerable to DoS via\n    /// out-of-gas.\n    function undelegateRevoked(address _operator) public {\n        TokenGrantStake grantStake = grantStakes[_operator];\n        uint256 grantId = grantStake.getGrantId();\n        require(\n            grants[grantId].revokedAt != 0,\n            \"Grant must be revoked\"\n        );\n        require(\n            msg.sender == grants[grantId].grantManager,\n            \"Only grant manager can force undelegation of revoked grant stake\"\n        );\n\n        grantStake.undelegate();\n    }\n\n    /// @notice Recover stake of the token grant.\n    /// Recovers the tokens correctly\n    /// even if they were earlier recovered directly in the staking contract.\n    /// @param _operator Operator of the stake.\n    function recoverStake(address _operator) public {\n        TokenGrantStake grantStake = grantStakes[_operator];\n        uint256 returned = grantStake.recoverStake();\n        uint256 grantId = grantStake.getGrantId();\n        grants[grantId].staked = grants[grantId].staked.sub(returned);\n\n        delete grantStakes[_operator];\n    }\n}\n",
  "sourcePath": "/home/circleci/project/solidity/contracts/TokenGrant.sol",
  "compiler": {
    "name": "solc",
    "version": "0.5.17+commit.d19bba13.Emscripten.clang"
  },
  "schemaVersion": "3.2.0",
  "updatedAt": "2020-08-30T13:47:14.286Z",
  "networkType": "ethereum",
  "devdoc": {
    "methods": {
      "availableToStake(uint256)": {
        "params": {
          "_grantId": "Identifier of the grant"
        }
      },
      "balanceOf(address)": {
        "params": {
          "_owner": "The address to query the grants balance of."
        },
        "return": "An uint256 representing the grants balance owned by the passed address."
      },
      "cancelStake(address)": {
        "params": {
          "_operator": "Address of the stake operator."
        }
      },
      "constructor": {
        "params": {
          "_tokenAddress": "address of a token that will be linked to this contract."
        }
      },
      "getGrant(uint256)": {
        "params": {
          "_id": "ID of the token grant."
        },
        "return": "amount The amount of tokens the grant provides.withdrawn The amount of tokens that have already been withdrawn                   from the grant.staked The amount of tokens that have been staked from the grant.revoked A boolean indicating whether the grant has been revoked,                 which is to say that it is no longer unlocking.grantee The grantee of grant."
      },
      "getGrantStakeDetails(address)": {
        "params": {
          "operator": "The operator address."
        },
        "return": "grantId ID of the token grant.amount The amount of tokens the given operator delegated.stakingContract The address of staking contract."
      },
      "getGrantUnlockingSchedule(uint256)": {
        "params": {
          "_id": "ID of the token grant."
        },
        "return": "grantManager The address designated as the manager of the grant,                      which is the only address that can revoke this grant.duration The duration, in seconds, during which the tokens will                  unlocking linearly.start The start time, as a timestamp comparing to `now`.cliff The timestamp, before which none of the tokens in the grant               will be unlocked, and after which a linear amount based on               the time elapsed since the start will be unlocked.policy The address of the grant's staking policy."
      },
      "getGranteeOperators(address)": {
        "params": {
          "grantee": "The grantee address."
        },
        "return": "An array of all operators for a given grantee."
      },
      "getGrants(address)": {
        "params": {
          "_granteeOrGrantManager": "The address to query."
        },
        "return": "An uint256 array of grant IDs."
      },
      "receiveApproval(address,uint256,address,bytes)": {
        "params": {
          "_amount": "Approved amount for the transfer to create token grant.",
          "_extraData": "This byte array must have the following values ABI encoded: grantManager (address) Address of the grant manager. grantee (address) Address of the grantee. duration (uint256) Duration in seconds of the unlocking period. start (uint256) Timestamp at which unlocking will start. cliffDuration (uint256) Duration in seconds of the cliff;               no tokens will be unlocked until the time `start + cliff`. revocable (bool) Whether the token grant is revocable or not (1 or 0). stakingPolicy (address) Address of the staking policy for the grant.",
          "_from": "The owner of the tokens who approved them to transfer.",
          "_token": "Token contract address."
        }
      },
      "recoverStake(address)": {
        "params": {
          "_operator": "Operator of the stake."
        }
      },
      "revoke(uint256)": {
        "details": "Granted tokens that are already unlocked (releasable amount) remain in the grant so grantee can still withdraw them the rest are revoked and withdrawable by token grant manager.",
        "params": {
          "_id": "Grant ID."
        }
      },
      "stake(uint256,address,uint256,bytes)": {
        "details": "Stakable token grant amount is determined by the grant's staking policy.",
        "params": {
          "_amount": "Amount to stake.",
          "_extraData": "Data for stake delegation. This byte array must have the following values concatenated: - Beneficiary address (20 bytes) - Operator address (20 bytes) - Authorizer address (20 bytes)",
          "_id": "Grant Id.",
          "_stakingContract": "Address of the staking contract."
        }
      },
      "stakeBalanceOf(address)": {
        "params": {
          "_address": "The address to query the balance of."
        },
        "return": "An uint256 representing the amount staked by the passed address."
      },
      "undelegate(address)": {
        "params": {
          "_operator": "Operator of the stake."
        }
      },
      "undelegateRevoked(address)": {
        "details": "Can be called by the grant manager once the grant is revoked. Has to be done this way, instead of undelegating all operators when the grant is revoked, because the latter method is vulnerable to DoS via out-of-gas."
      },
      "unlockedAmount(uint256)": {
        "details": "Calculates token grant amount that has already unlocked, including any tokens that have already been withdrawn by the grantee as well as any tokens that are available to withdraw but have not yet been withdrawn.",
        "params": {
          "_id": "Grant ID."
        }
      },
      "withdraw(uint256)": {
        "details": "Transfers unlocked tokens of the token grant to grantee.",
        "params": {
          "_id": "Grant ID."
        }
      },
      "withdrawRevoked(uint256)": {
        "details": "Will withdraw as many of the revoked tokens as possible without pushing the grant contract into a token deficit. If the grantee has staked more tokens than the unlocked amount, those tokens will remain in the grant until undelegated and returned, after which they can be withdrawn by calling `withdrawRevoked` again.",
        "params": {
          "_id": "Grant ID."
        }
      },
      "withdrawable(uint256)": {
        "details": "Calculates the amount that has already unlocked but hasn't been withdrawn yet.",
        "params": {
          "_id": "Grant ID."
        }
      }
    },
    "title": "TokenGrant"
  },
  "userdoc": {
    "methods": {
      "authorizeStakingContract(address)": {
        "notice": "Used by grant manager to authorize staking contract with the given address."
      },
      "availableToStake(uint256)": {
        "notice": "Returns the amount of tokens available for staking from the grant. The stakeable amount is determined by the staking policy of the grant. If the grantee has withdrawn some tokens or the policy returns an erroneously high value, the stakeable amount is limited to the number of tokens remaining."
      },
      "balanceOf(address)": {
        "notice": "Gets the amount of granted tokens to the specified address."
      },
      "cancelRevokedStake(address)": {
        "notice": "Force cancellation of a revoked grant's stake. Can be used by the grant manager to immediately withdraw tokens back into the grant, from an operator still within the initialization period. These tokens can then be withdrawn if some revoked tokens haven't been withdrawn yet."
      },
      "cancelStake(address)": {
        "notice": "Cancels delegation within the operator initialization period without being subjected to the stake lockup for the undelegation period. This can be used to undo mistaken delegation to the wrong operator address."
      },
      "constructor": "Creates a token grant contract for a provided Standard ERC20Burnable token.",
      "getGrant(uint256)": {
        "notice": "Gets grant by ID. Returns only basic grant data. If you need unlocking schedule for the grant you must call `getGrantUnlockingSchedule()` This is to avoid Ethereum `Stack too deep` issue described here: https://forum.ethereum.org/discussion/2400/error-stack-too-deep-try-removing-local-variables"
      },
      "getGrantStakeDetails(address)": {
        "notice": "Gets grant stake details of the given operator."
      },
      "getGrantUnlockingSchedule(uint256)": {
        "notice": "Gets grant unlocking schedule by grant ID."
      },
      "getGranteeOperators(address)": {
        "notice": "Gets operator addresses of the specified grantee address."
      },
      "getGrants(address)": {
        "notice": "Gets grant ids of the specified address."
      },
      "receiveApproval(address,uint256,address,bytes)": {
        "notice": "Receives approval of token transfer and creates a token grant with a unlocking schedule where balance withdrawn to the grantee gradually in a linear fashion until start + duration. By then all of the balance will have unlocked."
      },
      "recoverStake(address)": {
        "notice": "Recover stake of the token grant. Recovers the tokens correctly even if they were earlier recovered directly in the staking contract."
      },
      "revoke(uint256)": {
        "notice": "Allows the grant manager to revoke the grant."
      },
      "stake(uint256,address,uint256,bytes)": {
        "notice": "Stake token grant."
      },
      "stakeBalanceOf(address)": {
        "notice": "Gets the stake balance of the specified address."
      },
      "undelegate(address)": {
        "notice": "Undelegate the token grant."
      },
      "undelegateRevoked(address)": {
        "notice": "Force undelegation of a revoked grant's stake."
      },
      "unlockedAmount(uint256)": {
        "notice": "Calculates and returns unlocked grant amount."
      },
      "withdraw(uint256)": {
        "notice": "Withdraws Token grant amount to grantee."
      },
      "withdrawRevoked(uint256)": {
        "notice": "Allows the grant manager to withdraw revoked tokens."
      },
      "withdrawable(uint256)": {
        "notice": "Calculates withdrawable granted amount."
      }
    },
    "notice": "A token grant contract for a specified standard ERC20Burnable token. Has additional functionality to stake delegate/undelegate token grants. Tokens are granted to the grantee via unlocking scheme and can be withdrawn gradually based on the unlocking schedule cliff and unlocking duration. Optionally grant can be revoked by the token grant manager."
  }
}